:1000000095C00000AEC00000ACC00000AAC0000057
:10001000A8C00000A6C00000A4C00000A2C000004C
:10002000A0C000009EC0000003C40000CDC40000BA
:1000300098C0000096C0000094C0000092C000006C
:1000400090C000008EC000008CC000008AC000007C
:1000500088C0000086C0000084C0000082C000008C
:1000600080C000007EC000007CC000007AC000009C
:1000700078C0000076C0000074C0000072C00000AC
:1000800070C000006EC000006CC000006AC00000BC
:1000900068C0000066C0000064C0000062C00000CC
:1000A00060C000005EC000005CC000002E034C0079
:1000B00055004600410020004D00610073007300B0
:1000C0002000530074006F0072006100670065003B
:1000D0002000440065006D006F000000180344001C
:1000E000650061006E002000430061006D00650046
:1000F00072006100000004030904090220000101EC
:10010000008032090400000208065000070583023F
:10011000400005070504024000051201100100001F
:100120000008EB03452001000102DC0111241FBE81
:10013000CFEFDAE0DEBFCDBF11E0A0E0B1E0E2E258
:10014000FDE002C005900D92A231B107D9F721E080
:10015000A2E1B1E001C01D92AF33B207E1F743D194
:10016000DEC54ECF25B1982F9170909521609223D6
:1001700095B92BB1982F90729095206292239BB9DC
:1001800098B19F778078892B88B9089582E290E0B2
:100190009093CD008093CC0082E08093C80088E9E2
:1001A0008093C9008EE08093CA0008952091C80012
:1001B00025FFFCCFFC0180818093CE0008950F9332
:1001C0001F93CF93DF93EC018C01060F171FC0170D
:1001D000D10729F4DF91CF911F910F910895CE019E
:1001E000E5DF2196F4CF84B7877F84BF0FB6F894FC
:1001F000A8958091600088618093600010926000F3
:100200000FBE90E080E80FB6F89480936100909361
:1002100061000FBE209A289A559A5D9A3F9A479896
:10022000EAC280EA9FDF10921201089581E09ACF1E
:10023000CF9342E361E883E01BD2C82F42E360E83A
:1002400084E016D2882311F0C11103C081E8CF9158
:1002500089CF80E2FCCF809138018E3F81F08F3FC3
:10026000F9F4809137018132D9F48091E800877FD9
:100270008093E80032D281E080931201089580914A
:100280003701813A69F48091E800877F8093E80024
:100290001092F1008091E8008E778093E8001DC2F3
:1002A0000895CF93DF9300D0CDB7DEB780913601AC
:1002B000843009F087C080E255DF80911F0187FFFD
:1002C00003C083E08093E9008091170190911801A9
:1002D000A0911901B0911A0180930801909309012E
:1002E000A0930A01B0930B0180911B0190911C0116
:1002F000A0911D01B0911E0180930C0190930D01FE
:10030000A0930E01B0930F0120911001213049F408
:10031000892B8A2B8B2B29F08091EB0080628093B4
:10032000EB0084E08093E9008091EB0085FD1AC02A
:1003300083E08093E9008091EB0085FD48C01A823C
:100340001982AE014F5F5F4F6DE070E084E091E095
:1003500087D0853009F441C08091E8008E77809382
:10036000E80004C0809112018823F1F280E2FADEF5
:1003700080911201882331F180E18093EA0010928C
:10038000EA0088E08093EA001092EA0084E080931B
:10039000E9008091EB0080618093EB008091EB009D
:1003A00088608093EB0083E08093E9008091EB000C
:1003B00080618093EB008091EB0088608093EB007C
:1003C000109212010F900F90DF91CF9108958091BC
:1003D0001201882309F4AFCFC9CF8091120188237D
:1003E00009F4AFCFC3CFFFDE81E0BCDE7894CEDE70
:1003F00058DF7AD464E070E080E091E0E0DEF8CF8E
:10040000292F33272230310571F02330310581F057
:1004100021303105A1F482E190E02AE131E0FA01D6
:1004200031832083089580E290E02AEF30E0F7CF17
:1004300099278130910571F038F0029771F080E0D2
:1004400090E020E030E0EBCFE6EFF0E0849190E048
:100450009F01E5CFECEDF0E0F9CFECEAF0E0F6CF6C
:10046000AF92BF92DF92EF92FF920F931F93CF93C1
:10047000DF93EC018B017A014FD1D82E811124C07A
:10048000E114F10439F0F70180819181081B190B07
:10049000C80FD91FA12CB12C01151105A9F080910D
:1004A000E80085FD21C08091E8008E778093E80008
:1004B000E114F104A1F0F70180819181A80EB91E29
:1004C000B182A08285E0D82E8D2DDF91CF911F9132
:1004D0000F91FF90EF90DF90BF90AF9008951CD1E7
:1004E0008823D1F2D82EF0CF89918093F10001506A
:1004F0001109FFEFAF1ABF0ACFCF20913D01309114
:100500003E0126173707A8F06115710529F42091DF
:10051000E8002E772093E800FC0120E061157105CA
:1005200051F4211108C08091E80082FF33C080E0BF
:100530000895B901F1CF809136018823B9F1853052
:10054000B9F18091E80083FD2FC08091E80082FD21
:10055000EACF8091E80080FFE1CF2091F300809105
:10056000F20090E0922B6115710519F08830910529
:1005700050F021E0089709F020E08091E8008E77A4
:100580008093E800CBCF21912093F1006150710955
:100590000196E9CF80913601882341F0853041F002
:1005A0008091E80083FFBFCF81E0089582E0089545
:1005B00083E0089520913D0130913E0126173707D1
:1005C000A8F06115710529F42091E8002E77209399
:1005D000E800FC0120E06115710551F4211108C00B
:1005E0008091E80082FF34C080E00895B901F1CF26
:1005F000809136018823C1F18530C1F18091E800F6
:1006000083FD30C08091E80082FDEACF8091E80050
:1006100080FFE1CF2091F3008091F20090E0922BD7
:100620006115710519F08830910550F021E00897A7
:1006300009F020E08091E8008E778093E800CBCF2E
:1006400024912093F1003196615071090196E8CF11
:1006500080913601882341F0853041F08091E80097
:1006600083FFBECF81E0089582E0089583E008957E
:10067000982F973028F08F708093E90081E00895DB
:100680009093E900981751F07091EC002091ED00E3
:100690005091F00021FD06C09F5FEBCF242F762FF5
:1006A00050E0F8CF3091EB003E7F3093EB0030917B
:1006B000ED003D7F3093ED003091EB0031603093E1
:1006C000EB007093EC002093ED005093F00020912C
:1006D000EE0027FDE1CF80E008958091370187FF8C
:1006E00013C08091E80082FF06C08091E8008B77FC
:1006F0008093E80004C0809136018111F2CF089503
:10070000809136018823D9F38091E80080FFF8CFEB
:100710008091E8008E77ECCF2091E4003091E500E5
:1007200085E69091EC0090FD20C09091E80092FD4C
:1007300020C090913601992391F0953091F09091DD
:10074000EB0095FD10C04091E4005091E500421788
:10075000530739F381509A0121F784E0089582E02C
:10076000089583E0089581E008959091E80090FF56
:10077000E0CF80E008950F931F93CF93DF934BD08A
:1007800052D0C8EDD0E088818F77888388818068D7
:10079000888388818F7D888319BC109236011092DE
:1007A0003201109234011092330100EE10E0F80192
:1007B00080818B7F808388818160888342E060E0D4
:1007C00080E056DFE1EEF0E080818E7F8083E2EE14
:1007D000F0E0808181608083808188608083F8017F
:1007E00080818E7F8083888180618883DF91CF9133
:1007F0001F910F910895E8EDF0E080818F7E808356
:10080000E7EDF0E080818160808384E082BF81E059
:1008100080933501B0CFE8EDF0E080818E7F80835A
:100820001092E20008951092DA001092E10008950B
:100830001F920F920FB60F9211242F933F934F9355
:100840005F936F937F938F939F93AF93BF93EF9338
:10085000FF938091E10082FF0AC08091E20082FF55
:1008600006C08091E1008B7F8093E1003CD28091B3
:10087000DA0080FF18C08091D80080FF14C08091FA
:10088000DA008E7F8093DA008091D90080FF8FC0DC
:1008900080E189BD82E189BD09B400FEFDCF81E020
:1008A00080933601BEDC8091E10080FF18C080910A
:1008B000E20080FF14C08091E2008E7F8093E2000E
:1008C0008091E20080618093E2008091D800806294
:1008D0008093D80019BC85E08093360104D28091C2
:1008E000E10084FF28C08091E20084FF24C080E101
:1008F00089BD82E189BD09B400FEFDCF8091D80099
:100900008F7D8093D8008091E1008F7E8093E100FD
:100910008091E2008F7E8093E2008091E20081600E
:100920008093E20080913201882309F445C084E07D
:1009300080933601D8D18091E10083FF27C0809158
:10094000E20083FF23C08091E100877F8093E10074
:1009500082E080933601109232018091E1008E7F17
:100960008093E1008091E2008E7F8093E20080918D
:10097000E20080618093E20042E060E080E078DEA7
:100980008091F00088608093F000ADD1FF91EF91ED
:10099000BF91AF919F918F917F916F915F914F9197
:1009A0003F912F910F900FBE0F901F90189519BC7B
:1009B000109236013BDC77CF8091E30087FD02C0C7
:1009C00081E0B6CF83E0B4CF1F920F920FB60F92A3
:1009D00011242F933F934F935F936F937F938F9344
:1009E0009F93AF93BF93CF93EF93FF93C091E90091
:1009F000CF708091EC001092E9008091F000877F29
:100A00008093F00078941BD01092E9008091F00060
:100A100088608093F000C093E900FF91EF91CF913F
:100A2000BF91AF919F918F917F916F915F914F9106
:100A30003F912F910F900FBE0F901F9018951F930D
:100A4000CF93DF93CDB7DEB7AA970FB6F894DEBF8A
:100A50000FBECDBFE7E3F1E08091F100819321E08B
:100A6000EF33F207C9F7F7DB8091E80083FF10C08E
:100A70008091370190913801953009F4D2C000F58A
:100A8000913009F488C008F461C0933009F483C040
:100A90008091E80083FF0AC08091E800877F8093FF
:100AA000E8008091EB0080628093EB00AA960FB67D
:100AB000F894DEBF0FBECDBFDF91CF911F91089597
:100AC000983009F4E5C0993009F4EFC0963001F789
:100AD00080588230E8F68091390190913A018C3D3E
:100AE00023E0920709F0C1C083E08A838AE2898308
:100AF0004FB7F894DE01139620E03EE051E2E32F79
:100B0000F0E050935700E49120FF03C0E295EF70AE
:100B10003F5FEF708E2F90E0EA3008F4A4C0C796D4
:100B20008D939D932F5F243151F74FBF8091E80043
:100B3000877F8093E8006AE270E0CE010196DDDCF9
:100B40008091E8008B778093E800A2CF803881F015
:100B5000823809F09DCF80913B018F708093E9002E
:100B60008091EB0085FB882780F91092E90006C090
:100B70008091330190913401911182609091E8004D
:100B8000977F9093E8008093F1001092F10080919C
:100B9000E8008E772FC0282F2D7F09F079CF88238A
:100BA000D1F0823009F074CF8091390181111DC0DC
:100BB00080913B018F7009F46BCF8093E900209105
:100BC000EB0020FF12C09330C9F48091EB008062EB
:100BD0008093EB000AC080913901813009F058CF31
:100BE000933009F080E0809334011092E900809105
:100BF000E800877F8093E80070DD4ACF9091EB009A
:100C000090619093EB0021E030E001C0220F8A95C3
:100C1000EAF72093EA001092EA008091EB008860E6
:100C2000D7CF811135CF109139011F778091E30023
:100C30008078812B8093E3008091E800877F809308
:100C4000E8004BDD8091E80080FFFCCF8091E3005D
:100C500080688093E300111104C082E08093360124
:100C600017CF83E0FBCFC0965BCFAE014F5F5F4FE6
:100C700060913B01C5DBBC01892B09F409CF909140
:100C8000E800977F9093E80089819A8193DC58CFA0
:100C9000803809F0FDCE8091E800877F8093E800DE
:100CA000809132018093F10072CF8111F1CE909149
:100CB0003901923008F0ECCE8091E800877F809374
:100CC000E8009093320109DD80913201882311F010
:100CD00084E005C08091E30087FDFACF81E0809336
:100CE0003601A6DAD5CE0895CF93809136018823B8
:100CF00091F0C091E900CF708091EC0080FD0DC0B3
:100D000080E0C82B1092E9008091E80083FD97DE17
:100D1000CF70C093E900CF91089580E8F2CFF894A6
:020D2000FFCF03
:100D220054657374555342530000000000000000E4
:020D32000000BF
:00000001FF
