:100000008DC00000A7C00000A5C00000A3C0000074
:10001000A1C000009FC000009DC000009BC0000068
:1000200099C0000097C000000C94AB090C94790AA9
:1000300091C000008FC000008DC000008BC0000088
:1000400089C0000087C0000085C0000083C0000098
:1000500081C000007FC000007DC000007BC00000A8
:1000600079C0000077C0000075C0000073C00000B8
:1000700071C000006FC000006DC000006BC00000C8
:1000800069C0000067C0000065C0000063C00000D8
:1000900061C000005FC000005DC000005BC00000E8
:1000A00059C0000057C0000055C000002C03530089
:1000B00070007500720020004D0075006C00740027
:1000C000690062006F006F0074002000440065004A
:1000D000760069006300650000000A0353007000A9
:1000E00075007200000004030904090220000101E8
:1000F0000080320904000002080650000705830250
:10010000400005070504024000051201100100002F
:100110000008EB03452001000102DC0111241FBE91
:10012000CFEFDAE0DEBFCDBF12E0A0E0B1E0EEEE4F
:10013000F8E102C005900D92A439B107D9F724E087
:10014000A4E9B2E001C01D92AA3CB207E1F771D167
:100150000C94750C55CF25B1982F91709095216016
:10016000922395B92BB1982F90729095206292238B
:100170009BB998B19F778078892B88B9089584B707
:10018000877F84BF0FB6F894A8958091600088613E
:1001900080936000109260000FBE90E080E80FB680
:1001A000F89480936100909361000FBE209A289A82
:1001B000559A5D9A3F9A47980C948E0980EACBDF56
:1001C00010929402089581E0C6CFCF9342E361E894
:1001D00083E0E1D7C82F42E360E884E0DCD78823DE
:1001E00011F0C11103C081E8CF91B5CF80E2FCCFFF
:1001F0008091C3048E3F81F08F3FF9F48091C20457
:100200008132D9F48091E800877F8093E800F8D7A5
:1002100081E08093940208958091C204813A69F448
:100220008091E800877F8093E8001092F100809130
:10023000E8008E778093E800E3C70895CF93DF93BB
:1002400000D0CDB7DEB78091C104843009F069C019
:100250008093E9008091E80082FF39C01A821982F8
:10026000AE014F5F5F4F6FE070E08EE994E08BD698
:10027000853049F180919E0490919F04A091A00443
:10028000B091A10485359345A244B34471F48091A3
:10029000AB0481110AC08091AA048F7131F480915E
:1002A000AC048150803108F441C08091EB00806241
:1002B0008093EB0083E08093E9008091EB00806203
:1002C0008093EB0004C080919402882349F28091CE
:1002D0009402882331F180E18093EA001092EA00D1
:1002E00088E08093EA001092EA0084E08093E900BD
:1002F0008091EB0080618093EB008091EB0088603F
:100300008093EB0083E08093E9008091EB008061B3
:100310008093EB008091EB0088608093EB0010925B
:1003200094020F900F90DF91CF9108951A82198255
:100330006091AC0470E0AE014F5F5F4F8DEA94E0D6
:1003400022D6853009F45EC08091E8008B778093D7
:10035000E80080E200DF8091AA0487FF03C083E009
:100360008093E90017D291E089278093330140916F
:10037000A2045091A3046091A4047091A504409339
:100380002B0150932C0160932D0170932E0140910D
:10039000A6045091A7046091A8047091A904409309
:1003A0002F01509330016093310170933201882303
:1003B00049F0452B462B472B29F08091EB008062BA
:1003C0008093EB0084E08093E9008091EB0085FD51
:1003D0001FC083E08093E9008091EB0085FD1FC082
:1003E0001A821982AE014F5F5F4F6DE070E087E2C5
:1003F00091E07CD58530C1F08091E8008E778093C4
:10040000E8000AC080919402882309F491CF5FCF5D
:10041000809194028823C9F280E29DDE58CF8091BA
:1004200094028823C9F2F8CF809194028823D1F2F4
:10043000F3CF43D056D4811108C081E88CDE64E14B
:1004400070E080E091E050D0FFCF99DE81E083DE64
:100450007894F4DE0E940C0CFCCF292F3327223035
:10046000310571F02330310581F021303105A1F4DF
:1004700082E190E02AE031E0FA013183208308959F
:1004800080E290E02AEE30E0F7CF992781309105A5
:1004900071F038F0029771F080E090E020E030E0F9
:1004A000EBCFE6EEF0E0849190E09F01E5CFEAED3E
:1004B000F0E0F9CFECEAF0E0F6CF82E290E0909342
:1004C000CD008093CC0082E08093C80088E98093BF
:1004D000C9008EE08093CA0008959091C80095FFEE
:1004E000FCCF8093CE0008950F931F93CF93DF939B
:1004F000EC018C01060F171FC017D10729F4DF91FB
:10050000CF911F910F9108958991E7DFF5CF2F9239
:100510003F924F925F926F927F928F929F92AF9293
:10052000BF92CF92DF92EF92FF920F931F93CF93E0
:10053000DF93CDB7DEB72B970FB6F894DEBF0FBEB3
:10054000CDBF4B015C015B874A8783E6C6DF81E64E
:10055000C4DF8CE6C2DF8CE6C0DF8AE0BEDF8DE060
:10056000BCDF69E070E085E691E0BEDF00E210E00C
:10057000D501C401002E04C0B695A795979587951F
:100580000A94D2F780FF36C081E3A7DF015011093A
:1005900078F780E2A2DF69E070E08CE591E0A4DF0B
:1005A00000E110E08A859B85002E02C09695879514
:1005B0000A94E2F780FF20C081E38FDF0150110928
:1005C00088F78AE08ADF8DE088DF39D6682E8111CE
:1005D000C8C0C62CD12C8A859B85C816D90670F058
:1005E0008091E80085FDBDC08091E8008E77809302
:1005F000E800B7C080E3C9CF80E3DFCF6CE070E0F4
:1006000080E591E071DF08E010E0C601002E02C035
:10061000959587950A94E2F780FF91C081E35DDFAD
:100620000150110990F780E258DF8FE656DF86E629
:1006300054DF80E252DF08E010E0C601002E02C065
:10064000959587950A94E2F780FF7BC081E345DFAB
:100650000150110990F7DC2CDD0C1D82DE82DD0CCF
:10066000DD08DF82D886D9865D2C4D2C80E38A8315
:1006700065E070E084E391E037DF80E22EDF8A817D
:100680002CDF8AE02ADF8DE028DF8091E80085FFFB
:100690005AC07D808E809D2CAF80B884C984252C63
:1006A000342C80E190E09C838B83EE24E394F12C46
:1006B0008E010F5F1F4F272D382D492D5A2D6B2D81
:1006C0007C2DC10110D289818093F1008B819C81A6
:1006D00001979C838B83272D382D492D5A2D6B2D07
:1006E0007C2DC101A1E00E944E0C722E832E942E0F
:1006F000A52EB62EC72E1C018B819C81892BA9F6B5
:10070000E09194022D813E814D2D5F816885798530
:10071000852D942DA0E10E944E0C2D833E83D42E76
:100720005F8368877987582E492E9A819F5F9A83C5
:10073000E11117C0903509F09BCF63944ACF80E355
:100740006ECF80E384CF6FE070E081E491E0CCDE97
:100750008091E8008E778093E80071D5882309F4B2
:1007600098CF2B960FB6F894DEBF0FBECDBFDF91AA
:10077000CF911F910F91FF90EF90DF90CF90BF909E
:10078000AF909F908F907F906F905F904F903F9031
:100790002F9008950F931F93CF93DF938091AD0413
:1007A0008D3109F4E4C0E0F4823109F45AC070F4E8
:1007B000882309F450C1833009F4ADC080917001E1
:1007C000807F85608093700180E265C08A3109F482
:1007D00023C18B3199F764E170E083ED91E0CBC0E8
:1007E000883209F4DFC090F58E3109F439C18532C1
:1007F00029F767E170E081E392E076DE1092F10084
:100800008FE78093F1008FEF8093F1008093F100E8
:100810001092F1001092F10082E08093F1001092AA
:10082000F1008091940281113AC08091E8008E77A6
:100830008093E8008091A6049091A704A091A80459
:10084000B091A9040897A109B10952C08A3209F4EC
:100850009CC08F3209F0B2CF60E170E081E991E095
:100860008AC061E170E08FE592E03EDE2091B10444
:10087000C22F8091B004D82F8091AE04837021F4F0
:100880008091AF04882389F080917001807F85601A
:100890008093700184E280937A0110927B0180E062
:1008A000DF91CF911F910F9108958E01C532D1052F
:1008B00010F004E210E040E050E0B80180E792E080
:1008C00015D360E070E0CE01801B910BCCD28091FB
:1008D000E8008E778093E8008091A6049091A704A9
:1008E000A091A804B091A904801B910BA109B109A2
:1008F0008093A6049093A704A093A804B093A9049E
:1009000080917001807F8093700110927A01109223
:100910007B0181E0C5CF67E170E088E492E0E4DD2F
:10092000C091B104DC2FC33108F0D2E10D2F10E0EB
:1009300040E050E0B8018EE691E0D8D28C2F90E0F4
:1009400060E070E0801B910B8ED28091E8008E7782
:100950008093E8008091A6049091A704A091A80438
:10096000B091A9048D1B9109A109B109C1CF69E119
:1009700070E088E192E0B8DD1092A6041092A7041E
:100980001092A8041092A904BBCF6FE070E089E038
:1009900092E0AADD80917001807F87608093700172
:1009A00087E279CF6EE070E08BEF91E09DDD6091A2
:1009B000B2047091B1048091B0049091AF04209181
:1009C000B504C22F2091B404D22F6115710520E81F
:1009D0008207910540F080917001807F856080934F
:1009E000700181E258CFAE0192DDAE0160E070E0AF
:1009F00089E0440F551F661F771F8A95D1F78091B4
:100A0000A6049091A704A091A804B091A904841B06
:100A1000950BA60BB70B6CCF64E170E087EE91E00D
:100A200063DD1092F1001092F10080E88093F100F4
:100A30001092F1008091E8008E778093E800809119
:100A4000A6049091A704A091A804B091A9040497CA
:100A5000A109B1094DCF63E170E080EC91E08BCF4B
:100A60006FE170E081EA91E086CF8EBD0DB407FEA4
:100A7000FDCF8DB58F778DBD08958FEF8EBD0DB4F1
:100A800007FEFDCF8DB58F778DBD8EB50895FF9292
:100A90000F931F93CF93DF93C82FD42F152F062FBB
:100AA000F72EEBDF8C2F8064E0DF8F2DDEDF802FD1
:100AB000DCDF812FDADF8D2FD8DFCC2321F0C830A7
:100AC00081F08FEF01C085E9D0DFCAE0D6DF8F3F2C
:100AD00011F4C150D9F7DF91CF911F910F91FF9081
:100AE000089587E8F1CF2F923F924F925F926F92D5
:100AF0007F928F929F92AF92BF92CF92DF92EF92AE
:100B0000FF920F931F93CF93DF93CDB7DEB760971C
:100B10000FB6F894DEBF0FBECDBF29833A834B8357
:100B20005C836D837E838F8398871A870987FC8611
:100B3000EB862B853C85232B11F481E051C0298164
:100B40003A8131703E872D87190129813A814B8185
:100B50005C816D817E818F8198855101C12CD12C62
:100B6000E12CF12C00E010E0A5D639014A011B016F
:100B70002C0180E092E0ED85FE858E1B9F0B2B857E
:100B80003C85388B2F878217930710F4988B8F87BB
:100B9000A0909602B0909702C0909802D0909902CF
:100BA000E0909A02F0909B0200919C0210919D02AD
:100BB0009301A401B101C20186D609F480C028982E
:100BC0008091950282FF25C0842D09E042D6BA01AA
:100BD000422F532F81E15BDF8823F1F0289A80E0D8
:100BE00060960FB6F894DEBF0FBECDBFDF91CF91F8
:100BF0001F910F91FF90EF90DF90CF90BF90AF903B
:100C00009F908F907F906F905F904F903F902F902C
:100C10000895A301B401DECF30DF8E3FE9F70EE97E
:100C200012E02BDFF80181938F01F4E00E391F07EA
:100C3000C1F7609296027092970280929802909209
:100C4000990220929A0230929B0240929C0250920A
:100C50009D026D857E8562567D4F4F8558898985B9
:100C60009A853AD629853A858F859889280F391F24
:100C70003A87298702DF01DF289AFFDE8B859C8572
:100C8000EF85F8898E1B9F0B9C878B879F0140E027
:100C900050E060E070E080E090E0A980BA80CB8016
:100CA000DC80ED80FE800F811885EFD529833A83A3
:100CB0004B835C836D837E838F8398873ACF6D856A
:100CC0007E8562567D4F4F85588989859A8504D6E1
:100CD000E985FA852F853889E20FF31FFA87E987BE
:100CE000CDCFCF92DF92EF92FF920F931F93CF93CE
:100CF000DF93229A219A249A2398289A83E58CBD1F
:100D00008DB58E7F8DBD10929502CAE0B6DEC150C2
:100D1000E9F72898C0E0D2E040E050E0BA0180E076
:100D2000B6DE813021F02197B9F7289A0DC04AEA42
:100D300051E060E070E088E0AADE82FD2BC09DDE1D
:100D40009CDE9BDE80FD02C090E083C096DE8A3A86
:100D5000D9F780919502826080939502C0E0D0E837
:100D600080919502982F937049F181FF23C0C12C87
:100D7000D12CE12C90E4F92E40E050E0BA0187E359
:100D800086DEB701A60189E282DE80FF1CC02197C2
:100D900039F7CBCF40E050E0BA0187E378DE40E09E
:100DA00050E0BA0189E273DE82FDD8CF80919502CE
:100DB0008160D2CFC12CD12C7601DECF40E050E053
:100DC000BA0181E0E1CFC0919502C1FF10C040E0BF
:100DD00050E0BA018AE35BDE8111A7CF4EDE86FFC9
:100DE00003C0C460C093950248DE47DE46DE40E0A3
:100DF00052E060E070E080E14ADE289A8111A4CFE1
:100E00008CB58C7F8CBD8DB581608DBD8FEF80934F
:100E10009602809397028093980280939902809320
:100E20009A0280939B0280939C0280939D02E12C06
:100E300082E0F82E0EE912E020E030E040E050E0E1
:100E400060E070E080E090E04EDE91E0882309F4FD
:100E50007BCF892FDF91CF911F910F91FF90EF9062
:100E6000DF90CF900895CF92DF92FF920F931F9360
:100E7000CF93DF93EC018B01E2D1F82E811121C0D9
:100E80000115110529F0F80180819181C81BD90B4A
:100E9000C12CD12C2097A9F08091E80085FD1FC0BE
:100EA0008091E8008E778093E8000115110591F09C
:100EB000F80180819181C80ED91ED182C08285E05F
:100EC000F82E8F2DDF91CF911F910F91FF90DF9022
:100ED000CF900895B4D18823E9F2F82EF2CF109282
:100EE000F1002197FFEFCF1ADF0AD4CFAF92BF9264
:100EF000DF92EF92FF920F931F93CF93DF93EC015A
:100F00008B017A019CD1D82E811124C0E114F10407
:100F100039F0F70180819181081B190BC80FD91F87
:100F2000A12CB12C01151105A9F08091E80085FDD7
:100F300021C08091E8008E778093E800E114F104ED
:100F4000A1F0F70180819181A80EB91EB182A08223
:100F500085E0D82E8D2DDF91CF911F910F91FF90BD
:100F6000EF90DF90BF90AF90089569D18823D1F2C0
:100F7000D82EF0CF89918093F10001501109FFEF35
:100F8000AF1ABF0ACFCFAF92BF92DF92EF92FF921C
:100F90000F931F93CF93DF93EC018B017A014FD115
:100FA000D82E811124C0E114F10439F0F7018081B9
:100FB0009181081B190BC80FD91FA12CB12C011549
:100FC0001105A9F08091E80085FD21C08091E8001D
:100FD0008B778093E800E114F104A1F0F7018081A0
:100FE0009181A80EB91EB182A08285E0D82E8D2DE8
:100FF000DF91CF911F910F91FF90EF90DF90BF9005
:10100000AF9008951CD18823D1F2D82EF0CF8091D3
:10101000F100899301501109FFEFAF1ABF0ACFCF3A
:101020002091C8043091C90426173707A8F061152C
:10103000710529F42091E8002E772093E800FC0147
:1010400020E06115710551F4211108C08091E8007C
:1010500082FF33C080E00895B901F1CF8091C104CF
:101060008823B9F18530B9F18091E80083FD2FC064
:101070008091E80082FDEACF8091E80080FFE1CF17
:101080002091F3008091F20090E0922B61157105A0
:1010900019F08830910550F021E0089709F020E020
:1010A0008091E8008E778093E800CBCF2191209348
:1010B000F100615071090196E9CF8091C104882344
:1010C00041F0853041F08091E80083FFBFCF81E09F
:1010D000089582E0089583E008952091C804309136
:1010E000C90426173707A8F06115710529F4209166
:1010F000E8002E772093E800FC0120E061157105DF
:1011000051F4211108C08091E80082FF34C080E0D2
:101110000895B901F1CF8091C1048823C1F18530D0
:10112000C1F18091E80083FD30C08091E80082FD2C
:10113000EACF8091E80080FFE1CF2091F300809119
:10114000F20090E0922B6115710519F0883091053D
:1011500050F021E0089709F020E08091E8008E77B8
:101160008093E800CBCF24912093F1003196615019
:1011700071090196E8CF8091C104882341F0853040
:1011800041F08091E80083FFBECF81E0089582E0C6
:10119000089583E00895982F973028F08F708093FA
:1011A000E90081E008959093E900981751F070915B
:1011B000EC002091ED005091F00021FD06C09F5FF2
:1011C000EBCF242F762F50E0F8CF3091EB003E7F0D
:1011D0003093EB003091ED003D7F3093ED00309186
:1011E000EB0031603093EB007093EC002093ED0046
:1011F0005093F0002091EE0027FDE1CF80E00895AC
:101200008091C20487FF13C08091E80082FF06C06E
:101210008091E8008B778093E80004C08091C1043E
:101220008111F2CF08958091C1048823D9F3809170
:10123000E80080FFF8CF8091E8008E77ECCF209116
:10124000E4003091E50085E69091EC0090FD20C02F
:101250009091E80092FD20C09091C104992391F0F3
:10126000953091F09091EB0095FD10C04091E40015
:101270005091E5004217530739F381509A0121F745
:1012800084E0089582E0089583E0089581E0089560
:101290009091E80090FFE0CF80E008950F931F93B6
:1012A000CF93DF934BD052D0C8EDD0E088818F77B9
:1012B000888388818068888388818F7D888319BC32
:1012C0001092C1041092BD041092BF041092BE048B
:1012D00000EE10E0F80180818B7F8083888181603F
:1012E000888342E060E080E056DFE1EEF0E080815C
:1012F0008E7F8083E2EEF0E0808181608083808158
:1013000088608083F80180818E7F808388818061FE
:101310008883DF91CF911F910F910895E8EDF0E060
:1013200080818F7E8083E7EDF0E080818160808323
:1013300084E082BF81E08093C004B0CFE8EDF0E0AC
:1013400080818E7F80831092E20008951092DA00EF
:101350001092E10008951F920F920FB60F92112480
:101360002F933F934F935F936F937F938F939F93AD
:10137000AF93BF93EF93FF938091E10082FF0AC088
:101380008091E20082FF06C08091E1008B7F809314
:10139000E10041D28091DA0080FF19C08091D8002D
:1013A00080FF15C08091DA008E7F8093DA008091F3
:1013B000D90080FF90C080E189BD82E189BD09B478
:1013C00000FEFDCF81E08093C1040E94DE00809189
:1013D000E10080FF18C08091E20080FF14C080917E
:1013E000E2008E7F8093E2008091E2008061809332
:1013F000E2008091D80080628093D80019BC85E01B
:101400008093C10408D28091E10084FF28C08091BC
:10141000E20084FF24C080E189BD82E189BD09B476
:1014200000FEFDCF8091D8008F7D8093D800809101
:10143000E1008F7E8093E1008091E2008F7E8093B7
:10144000E2008091E20081608093E2008091BD041F
:10145000882309F446C084E08093C104DCD18091E4
:10146000E10083FF27C08091E20083FF23C08091C9
:10147000E100877F8093E10082E08093C1041092B5
:10148000BD048091E1008E7F8093E1008091E200B5
:101490008E7F8093E2008091E20080618093E20081
:1014A00042E060E080E077DE8091F0008860809329
:1014B000F000B1D1FF91EF91BF91AF919F918F91CA
:1014C0007F916F915F914F913F912F910F900FBE40
:1014D0000F901F90189519BC1092C1040E94E30050
:1014E00076CF8091E30087FD02C081E0B5CF83E035
:1014F000B3CF1F920F920FB60F9211242F933F93E9
:101500004F935F936F937F938F939F93AF93BF930B
:10151000CF93EF93FF93C091E900CF708091EC00DF
:101520001092E9008091F000877F8093F00078941A
:101530001BD01092E9008091F00088608093F00049
:10154000C093E900FF91EF91CF91BF91AF919F912F
:101550008F917F916F915F914F913F912F910F905C
:101560000FBE0F901F9018951F93CF93DF93CDB7A9
:10157000DEB7AA970FB6F894DEBF0FBECDBFE2EC80
:10158000F4E08091F100819324E0EA3CF207C9F78E
:101590000E94F8008091E80083FF10C08091C2048F
:1015A0009091C304953009F4D2C000F5913009F44C
:1015B00088C008F461C0933009F483C08091E800CA
:1015C00083FF0AC08091E800877F8093E8008091C4
:1015D000EB0080628093EB00AA960FB6F894DEBF12
:1015E0000FBECDBFDF91CF911F910895983009F4C0
:1015F000E6C0993009F4F0C0963001F78058823087
:10160000E8F68091C4049091C5048C3D23E09207D4
:1016100009F0C1C083E08A838AE289834FB7F894D6
:10162000DE01139620E03EE051E2E32FF0E050931C
:101630005700E49120FF03C0E295EF703F5FEF7029
:101640008E2F90E0EA3008F4A4C0C7968D939D9346
:101650002F5F243151F74FBF8091E800877F80933F
:10166000E8006AE270E0CE010196DADC8091E800E1
:101670008B778093E800A2CF803881F0823809F020
:101680009DCF8091C6048F708093E9008091EB001C
:1016900085FB882780F91092E90006C08091BE047E
:1016A0009091BF04911182609091E800977F909390
:1016B000E8008093F1001092F1008091E8008E77AD
:1016C0002FC0282F2D7F09F079CF8823D1F08230C9
:1016D00009F074CF8091C40481111DC08091C604AB
:1016E0008F7009F46BCF8093E9002091EB0020FF0D
:1016F00012C09330C9F48091EB0080628093EB00BC
:101700000AC08091C404813009F058CF933009F0A9
:1017100080E08093BF041092E9008091E800877F09
:101720008093E8006DDD4ACF9091EB00906190933B
:10173000EB0021E030E001C0220F8A95EAF7209308
:10174000EA001092EA008091EB008860D7CF811107
:1017500035CF1091C4041F778091E3008078812BEE
:101760008093E3008091E800877F8093E80048DD64
:101770008091E80080FFFCCF8091E3008068809337
:10178000E300111104C082E08093C10417CF83E00D
:10179000FBCFC0965BCFAE014F5F5F4F6091C60439
:1017A0000E942D02BC01892B09F408CF9091E8001A
:1017B000977F9093E80089819A818FDC57CF80389A
:1017C00009F0FCCE8091E800877F8093E80080914B
:1017D000BD048093F10071CF8111F0CE9091C404CB
:1017E000923008F0EBCE8091E800877F8093E8008C
:1017F0009093BD0405DD8091BD04882311F084E041
:1018000005C08091E30087FDFACF81E08093C10499
:101810000E94E500D3CE0895CF938091C104882320
:1018200091F0C091E900CF708091EC0080FD0DC077
:1018300080E0C82B1092E9008091E80083FD94DEDF
:10184000CF70C093E900CF91089580E8F2CF97FB65
:1018500010F8169400080F93083098F00850232FC2
:10186000342F452F562F672F782F892F902DF4CFA7
:1018700005949795879577956795579547953795EB
:1018800027950A95AAF70F9108952A0D3B1D4C1D27
:101890005D1D6E1D7F1D801F911F08950024A7FDF3
:1018A00000942A0F301D401D501D601D701D801DAD
:1018B000901D08952A193B094C095D096E097F099D
:1018C000800B910B08952A153B054C055D056E05AF
:1018D0007F05800791070895FB01DC0102C001909C
:0E18E0000D9241505040D8F70895F894FFCF74
:1018EE007364206361726420696E6974206572721C
:1018FE006F720A0D30313233343536373839414252
:10190E00434446546573745553425300000000001F
:10191E00000000006368756E6B6275666665723AEC
:10192E0020656E64706F696E742066756C6C0A0D3E
:10193E0063757272656E74626C6B3A20746F74624A
:10194E006C6B733A20626C6B616464723A20700047
:10195E0000000000000A000000000000000000006F
:10196E00696E76616C696420636F6D6D616E640A79
:10197E000D76657269667920636F6D6D616E640AAE
:10198E000D70726576656E7420616C6C6F77207267
:10199E00656D6F76616C20636F6D6D616E640A0D9F
:1019AE007465737420756E697420636F6D6D616EEE
:1019BE00640A0D73746172742073746F7020636F98
:1019CE006D6D616E640A0D6D6F64652073656E7367
:1019DE006520636F6D6D616E640A0D7265616420C2
:1019EE00636F6D6D616E640A0D7772697465206345
:1019FE006F6D6D616E640A0D73656E64206469614E
:101A0E00676E6F7374696320636F6D6D616E640AC8
:101A1E000D7265616420636170616369747920631E
:101A2E006F6D6D616E640A0D7265717565737420EC
:101A3E0073656E736520636F6D6D616E640A0D69FB
:101A4E006E717569727920636F6D6D616E640A0DCA
:101A5E00000000021F0000005370757200000000AD
:101A6E0053707572204D756C7469626F6F740000DF
:041A7E00302E3030A6
:00000001FF
