:10000000CEC00000E8C00000E6C00000E4C0000070
:10001000E2C00000E0C00000DEC00000DCC0000064
:10002000DAC00000D8C000000C94B6090C94840A11
:10003000D2C00000D0C00000CEC00000CCC0000084
:10004000CAC00000C8C00000C6C00000C4C0000094
:10005000C2C00000C0C00000BEC00000BCC00000A4
:10006000BAC00000B8C00000B6C00000B4C00000B4
:10007000B2C00000B0C00000AEC00000ACC00000C4
:10008000AAC00000A8C00000A6C00000A4C00000D4
:10009000A2C00000A0C000009EC000009CC00000E4
:1000A0009AC0000098C0000096C000000763423666
:1000B000B79BD8A71A39685618AEBAAB558C1D3CF9
:1000C000B7CC5763BD6DEDFD753EF6177231BF00BD
:1000D0000000803F08000000BE922449123EABAAF7
:1000E000AA2ABECDCCCC4C3E00000080BEABAAAA52
:1000F000AA3E00000000BF000000803F000000009A
:1001000000084178D3BB4387D1133D190E3CC3BDD2
:100110004282AD2B3E68EC8276BED98FE1A93E4C7F
:1001200080EFFFBE01C4FF7F3F00000000002C03F2
:10013000530070007500720020004D0075006C00C7
:100140007400690062006F006F00740020004400BA
:100150006500760069006300650000000A03530033
:1001600070007500720000000403090409022000F9
:100170000101008032090400000208065000070552
:10018000830240000507050402400005120110012A
:1001900000000008EB03452001000102DC011124EE
:1001A0001FBECFEFDAE0DEBFCDBF12E0A0E0B1E0CE
:1001B000EEECFFE102C005900D92A637B107D9F72A
:1001C00024E0A6E7B2E001C01D92AC3AB207E1F725
:1001D00071D10C94E50F14CF25B1982F91709095A3
:1001E0002160922395B92BB1982F9072909520623F
:1001F00092239BB998B19F778078892B88B908950D
:1002000084B7877F84BF0FB6F894A895809160006B
:10021000886180936000109260000FBE90E080E8DB
:100220000FB6F89480936100909361000FBE209AFE
:10023000289A559A5D9A3F9A47980C94990980EAB2
:10024000CBDF10927602089581E0C6CFCF9342E3D0
:1002500061E883E0ABD7C82F42E360E884E0A6D72B
:10026000882311F0C11103C081E8CF91B5CF80E29E
:10027000FCCF8091A5048E3F81F08F3FF9F48091EF
:10028000A4048132D9F48091E800877F8093E8004C
:10029000C2D781E08093760208958091A404813AC8
:1002A00069F48091E800877F8093E8001092F10064
:1002B0008091E8008E778093E800ADC70895CF93D2
:1002C000DF9300D0CDB7DEB78091A304843009F06E
:1002D00069C08093E9008091E80082FF39C01A82EA
:1002E0001982AE014F5F5F4F6FE070E080E894E0ED
:1002F00055D6853049F18091800490918104A09178
:100300008204B091830485359345A244B34471F4CB
:1003100080918D0481110AC080918C048F7131F419
:1003200080918E048150803108F441C08091EB00AF
:1003300080628093EB0083E08093E9008091EB0082
:1003400080628093EB0004C080917602882349F29A
:1003500080917602882331F180E18093EA00109247
:10036000EA0088E08093EA001092EA0084E080933B
:10037000E9008091EB0080618093EB008091EB00BD
:1003800088608093EB0083E08093E9008091EB002C
:1003900080618093EB008091EB0088608093EB009C
:1003A000109276020F900F90DF91CF9108951A82EC
:1003B000198260918E0470E0AE014F5F5F4F8FE84D
:1003C00094E0ECD5853009F45EC08091E8008B772D
:1003D0008093E80080E200DF80918C0487FF03C0F7
:1003E00083E08093E900DED191E089278093330197
:1003F0004091840450918504609186047091870433
:1004000040932B0150932C0160932D0170932E018A
:10041000409188045091890460918A0470918B0402
:1004200040932F015093300160933101709332015A
:10043000882349F0452B462B472B29F08091EB0070
:1004400080628093EB0084E08093E9008091EB0070
:1004500085FD1FC083E08093E9008091EB0085FD5E
:100460001FC01A821982AE014F5F5F4F6DE070E0CE
:1004700087E291E046D58530C1F08091E8008E7723
:100480008093E8000AC080917602882309F491CF16
:100490005FCF809176028823C9F280E29DDE58CF3B
:1004A000809176028823C9F2F8CF80917602882362
:1004B000D1F2F3CF43D020D4811108C081E88CDE83
:1004C00064E170E080E091E050D0FFCF99DE81E000
:1004D00083DE7894F4DE0E94170CFCCF292F33279B
:1004E0002230310571F02330310581F021303105A2
:1004F000A1F482E190E02CE831E0FA01318320831D
:10050000089580E290E02CE631E0F7CF9927813022
:10051000910571F038F0029771F080E090E020E0F2
:1005200030E0EBCFE8E6F1E0849190E09F01E5CF89
:10053000ECE5F1E0F9CFEEE2F1E0F6CF82E290E017
:100540009093CD008093CC0082E08093C80088E92E
:100550008093C9008EE08093CA0008959091C800EE
:1005600095FFFCCF8093CE0008950F931F93CF93F8
:10057000DF93EC018C01060F171FC017D10729F478
:10058000DF91CF911F910F9108958991E7DFF5CF0A
:100590002F923F924F925F926F927F928F929F9293
:1005A000AF92BF92CF92DF92EF92FF920F931F9381
:1005B000CF93DF93CDB7DEB72A970FB6F894DEBF9F
:1005C0000FBECDBF6A014B015C0139E0880C991C5C
:1005D000AA1CBB1C3A95D1F7CA01982F8827990FFE
:1005E0009C0140E050E02A833B834C835D8365E0BF
:1005F00070E08AE491E0B9DF09E010E05AE0452EAE
:10060000512C612C712CB801012E000C880B990B18
:100610000E94600C9B01AC0160E070E080E291E41C
:100620000E94C40C0E94320C9B01AC01C501B401B4
:100630000E94810FCA01B901A30192010E94810F9A
:10064000685C7E4FFB01808189DF01501109D8F67B
:1006500068E070E082E491E088DF09E010E02AE0E1
:10066000422E512C612C712CB801012E000C880BEC
:10067000990B0E94600C9B01AC0160E070E080E28D
:1006800091E40E94C40C0E94320C9B01AC016A816F
:100690007B818C819D810E94810FCA01B901A301D8
:1006A00092010E94810F685C7E4FFB01808156DFC2
:1006B00001501109C8F68AE051DF8DE04FDFCAD53D
:1006C000811157C0C114D10451F48091E80085FD17
:1006D00050C08091E8008E778093E8004AC020E205
:1006E0002A878091E80085FF3BC01401250190E135
:1006F000692E712CA201910160E070E0CB012A8289
:100700003B834C835D836E837F8388879987EE2448
:10071000E394F12C8E010F5F1F4F60E070E080E0EA
:1007200090E0E6D189818093F1003FEF231A330AEC
:10073000430A530A41E0641A7108E1F650E1850E5C
:10074000911CA11CB11C80917602811112C06A8596
:1007500061506A876111C5CF71E0C71AD108B2CF65
:100760008091E8008E778093E80074D5882309F49F
:10077000BCCF2A960FB6F894DEBF0FBECDBFDF9177
:10078000CF911F910F91FF90EF90DF90CF90BF908E
:10079000AF909F908F907F906F905F904F903F9021
:1007A0002F9008950F931F93CF93DF9380918F0421
:1007B0008D3109F4E5C0E0F4823109F45BC070F4D6
:1007C000882309F44DC1833009F4AEC080915101F2
:1007D000807F85608093510180E266C08A3109F490
:1007E00020C18B3199F764E170E084EB91E0CCC0DB
:1007F000883209F4E0C098F58E3109F436C18532AB
:1008000029F767E170E082E192E0AFDE1092F1003B
:100810008CEE8093F1008FED8093F1008FEF809349
:10082000F1001092F1001092F10082E08093F1004B
:100830001092F1008091760281113AC08091E80017
:100840008E778093E8008091880490918904A0912C
:100850008A04B0918B040897A109B10952C08A3269
:1008600009F49CC08F3209F0B1CF60E170E082E7FB
:1008700091E08AC061E170E080E492E076DE209150
:100880009304C22F80919204D82F8091900483709A
:1008900021F480919104882389F080915101807F17
:1008A00085608093510184E280935B0110925C012A
:1008B00080E0DF91CF911F910F9108958E01C53295
:1008C000D10510F004E210E040E050E0B80181E50D
:1008D00092E017D360E070E0CE01801B910BCED286
:1008E0008091E8008E778093E80080918804909151
:1008F0008904A0918A04B0918B04801B910BA109FB
:10090000B1098093880490938904A0938A04B093DA
:100910008B0480915101807F8093510110925B0183
:1009200010925C0181E0C5CF67E170E089E292E05E
:100930001CDEC0919304DC2FC33108F0D2E10D2FEF
:1009400010E040E050E0B8018FE491E0DAD28C2F63
:1009500090E060E070E0801B910B90D28091E80005
:100960008E778093E8008091880490918904A0910B
:100970008A04B0918B048D1B9109A109B109C1CFE3
:1009800069E170E089EF91E0F0DD10928804109247
:10099000890410928A0410928B04BBCF6FE070E040
:1009A0008AEE91E0E2DD80915101807F8760809343
:1009B000510187E279CF6091940470919304809102
:1009C00092049091910420919704C22F2091960453
:1009D000D22F611520EE72072CEE8207910540F0B0
:1009E00080915101807F85608093510181E25CCFCD
:1009F000AE01CEDDAE0160E070E089E0440F551F2E
:100A0000661F771F8A95D1F7809188049091890499
:100A1000A0918A04B0918B04841B950BA60BB70B95
:100A200070CF64E170E088EC91E09FDD1092F100FE
:100A30001092F10080E88093F1001092F100809113
:100A4000E8008E778093E800809188049091890473
:100A5000A0918A04B0918B040497A109B10951CFE8
:100A600063E170E081EA91E08FCF6FE170E082E8AE
:100A700091E08ACF8EBD0DB407FEFDCF8DB58F7787
:100A80008DBD08958FEF8EBD0DB407FEFDCF8DB5E2
:100A90008F778DBD8EB50895FF920F931F93CF93DF
:100AA000DF93C82FD42F152F062FF72EEBDF8C2FB7
:100AB0008064E0DF8F2DDEDF802FDCDF812FDADF47
:100AC0008D2FD8DFCC2321F0C83081F08FEF01C00B
:100AD00085E9D0DFCAE0D6DF8F3F11F4C150D9F7E6
:100AE000DF91CF911F910F91FF90089587E8F1CF8B
:100AF0002F923F924F925F926F927F928F929F922E
:100B0000AF92BF92CF92DF92EF92FF920F931F931B
:100B1000CF93DF93CDB7DEB760970FB6F894DEBF03
:100B20000FBECDBF29833A834B835C836D837E8365
:100B30008F8398871A870987FC86EB862B853C85EF
:100B4000232B11F481E054C029813A8131703E8712
:100B50002D87190129813A814B815C816D817E81CC
:100B60008F8198855101C12CD12CE12CF12C00E012
:100B700010E00E94CA0F39014A011B012C0180E0DC
:100B800092E0ED85FE858E1B9F0B2B853C85388B77
:100B90002F878217930710F4988B8F87A090780285
:100BA000B0907902C0907A02D0907B02E0907C02F3
:100BB000F0907D0200917E0210917F029301A401CA
:100BC000B101C2010E94D30F09F483C0289880911B
:100BD000770282FF26C0842D09E00E94A50FBA018A
:100BE000422F532F81E158DF8823F1F0289A80E0CB
:100BF00060960FB6F894DEBF0FBECDBFDF91CF91E8
:100C00001F910F91FF90EF90DF90CF90BF90AF902A
:100C10009F908F907F906F905F904F903F902F901C
:100C20000895A301B401DECF2DDF8E3FE9F700E880
:100C300012E028DFF80181938F01F4E000381F07EC
:100C4000C1F7609278027092790280927A02909253
:100C50007B0220927C0230927D0240927E02509272
:100C60007F026D857E8560587D4F4F8558898985C7
:100C70009A850E94DC0F29853A858F859889280FEF
:100C8000391F3A872987FEDEFDDE289AFBDE8B8539
:100C90009C85EF85F8898E1B9F0B9C878B879F0116
:100CA00040E050E060E070E080E090E0A980BA8031
:100CB000CB80DC80ED80FE800F8118850E94C10F03
:100CC00029833A834B835C836D837E838F839887EC
:100CD00035CF6D857E8560587D4F4F8558898985D4
:100CE0009A850E94DC0FE985FA852F853889E20F05
:100CF000F31FFA87E987CBCFCF92DF92EF92FF9273
:100D00000F931F93CF93DF93229A219A249A2398CB
:100D1000289A83E58CBD8DB58E7F8DBD10927702AC
:100D2000CAE0B0DEC150E9F72898C0E0D2E040E068
:100D300050E0BA0180E0B0DE813021F02197B9F7B0
:100D4000289A0DC04AEA51E060E070E088E0A4DE35
:100D500082FD2BC097DE96DE95DE80FD02C090E01E
:100D600083C090DE8A3AD9F78091770282608093BF
:100D70007702C0E0D0E880917702982F937049F114
:100D800081FF23C0C12CD12CE12C90E4F92E40E04E
:100D900050E0BA0187E380DEB701A60189E27CDE7C
:100DA00080FF1CC0219739F7CBCF40E050E0BA015B
:100DB00087E372DE40E050E0BA0189E26DDE82FD39
:100DC000D8CF809177028160D2CFC12CD12C76010F
:100DD000DECF40E050E0BA0181E0E1CFC091770280
:100DE000C1FF10C040E050E0BA018AE355DE811136
:100DF000A7CF48DE86FF03C0C460C093770242DEFF
:100E000041DE40DE40E052E060E070E080E144DE40
:100E1000289A8111A4CF8CB58C7F8CBD8DB5816053
:100E20008DBD8FEF809378028093790280937A0250
:100E300080937B0280937C0280937D0280937E026C
:100E400080937F02E12C82E0F82E00E812E020E09F
:100E500030E040E050E060E070E080E090E048DEAC
:100E600091E0882309F47BCF892FDF91CF911F91E7
:100E70000F91FF90EF90DF90CF900895CF92DF9287
:100E8000FF920F931F93CF93DF93EC018B01E2D17D
:100E9000F82E811121C00115110529F0F80180817A
:100EA0009181C81BD90BC12CD12C2097A9F080911E
:100EB000E80085FD1FC08091E8008E778093E800F0
:100EC0000115110591F0F80180819181C80ED91E9C
:100ED000D182C08285E0F82E8F2DDF91CF911F91B6
:100EE0000F91FF90DF90CF900895B4D18823E9F25D
:100EF000F82EF2CF1092F1002197FFEFCF1ADF0A00
:100F0000D4CFAF92BF92DF92EF92FF920F931F93D5
:100F1000CF93DF93EC018B017A019CD1D82E811104
:100F200024C0E114F10439F0F70180819181081B9C
:100F3000190BC80FD91FA12CB12C01151105A9F04F
:100F40008091E80085FD21C08091E8008E77809334
:100F5000E800E114F104A1F0F70180819181A80E6D
:100F6000B91EB182A08285E0D82E8D2DDF91CF9160
:100F70001F910F91FF90EF90DF90BF90AF90089579
:100F800069D18823D1F2D82EF0CF89918093F100D6
:100F900001501109FFEFAF1ABF0ACFCFAF92BF9236
:100FA000DF92EF92FF920F931F93CF93DF93EC01A9
:100FB0008B017A014FD1D82E811124C0E114F104A4
:100FC00039F0F70180819181081B190BC80FD91FD7
:100FD000A12CB12C01151105A9F08091E80085FD27
:100FE00021C08091E8008B778093E800E114F10440
:100FF000A1F0F70180819181A80EB91EB182A08273
:1010000085E0D82E8D2DDF91CF911F910F91FF900C
:10101000EF90DF90BF90AF9008951CD18823D1F25C
:10102000D82EF0CF8091F100899301501109FFEF84
:10103000AF1ABF0ACFCF2091AA043091AB04261774
:101040003707A8F06115710529F42091E8002E7783
:101050002093E800FC0120E06115710551F4211195
:1010600008C08091E80082FF33C080E00895B90194
:10107000F1CF8091A3048823B9F18530B9F1809133
:10108000E80083FD2FC08091E80082FDEACF8091C7
:10109000E80080FFE1CF2091F3008091F20090E022
:1010A000922B6115710519F08830910550F021E0FF
:1010B000089709F020E08091E8008E778093E8009F
:1010C000CBCF21912093F100615071090196E9CFB6
:1010D0008091A304882341F0853041F08091E8009D
:1010E00083FFBFCF81E0089582E0089583E00895F3
:1010F0002091AA043091AB0426173707A8F0611598
:10110000710529F42091E8002E772093E800FC0176
:1011100020E06115710551F4211108C08091E800AB
:1011200082FF34C080E00895B901F1CF8091A3041B
:101130008823C1F18530C1F18091E80083FD30C082
:101140008091E80082FDEACF8091E80080FFE1CF46
:101150002091F3008091F20090E0922B61157105CF
:1011600019F08830910550F021E0089709F020E04F
:101170008091E8008E778093E800CBCF2491209374
:10118000F1003196615071090196E8CF8091A30476
:10119000882341F0853041F08091E80083FFBECF85
:1011A00081E0089582E0089583E00895982F9730B4
:1011B00028F08F708093E90081E008959093E90012
:1011C000981751F07091EC002091ED005091F000D3
:1011D00021FD06C09F5FEBCF242F762F50E0F8CF84
:1011E0003091EB003E7F3093EB003091ED003D7F7E
:1011F0003093ED003091EB0031603093EB00709351
:10120000EC002093ED005093F0002091EE0027FDBC
:10121000E1CF80E008958091A40487FF13C08091FE
:10122000E80082FF06C08091E8008B778093E80099
:1012300004C08091A3048111F2CF08958091A3048A
:101240008823D9F38091E80080FFF8CF8091E800EF
:101250008E77ECCF2091E4003091E50085E6909107
:10126000EC0090FD20C09091E80092FD20C090918C
:10127000A304992391F0953091F09091EB0095FDA6
:1012800010C04091E4005091E5004217530739F334
:1012900081509A0121F784E0089582E0089583E067
:1012A000089581E008959091E80090FFE0CF80E0FC
:1012B00008950F931F93CF93DF934BD052D0C8ED77
:1012C000D0E088818F77888388818068888388814F
:1012D0008F7D888319BC1092A30410929F041092F2
:1012E000A1041092A00400EE10E0F80180818B7F31
:1012F000808388818160888342E060E080E056DFFF
:10130000E1EEF0E080818E7F8083E2EEF0E080818C
:1013100081608083808188608083F80180818E7FF6
:101320008083888180618883DF91CF911F910F91A5
:101330000895E8EDF0E080818F7E8083E7EDF0E0B6
:1013400080818160808384E082BF81E08093A204F9
:10135000B0CFE8EDF0E080818E7F80831092E200D4
:1013600008951092DA001092E10008951F920F92F2
:101370000FB60F9211242F933F934F935F936F9368
:101380007F938F939F93AF93BF93EF93FF9380913E
:10139000E10082FF0AC08091E20082FF06C08091D6
:1013A000E1008B7F8093E10041D28091DA0080FFE1
:1013B00019C08091D80080FF15C08091DA008E7F1F
:1013C0008093DA008091D90080FF90C080E189BDD0
:1013D00082E189BD09B400FEFDCF81E08093A304C2
:1013E0000E941F018091E10080FF18C08091E200FF
:1013F00080FF14C08091E2008E7F8093E200809194
:10140000E20080618093E2008091D8008062809346
:10141000D80019BC85E08093A30408D28091E10034
:1014200084FF28C08091E20084FF24C080E189BD50
:1014300082E189BD09B400FEFDCF8091D8008F7D87
:101440008093D8008091E1008F7E8093E1008091AD
:10145000E2008F7E8093E2008091E20081608093C1
:10146000E20080919F04882309F446C084E08093C1
:10147000A304DCD18091E10083FF27C08091E200CA
:1014800083FF23C08091E100877F8093E10082E0A9
:101490008093A30410929F048091E1008E7F80933B
:1014A000E1008091E2008E7F8093E2008091E20073
:1014B00080618093E20042E060E080E077DE80912E
:1014C000F00088608093F000B1D1FF91EF91BF915F
:1014D000AF919F918F917F916F915F914F913F91CC
:1014E0002F910F900FBE0F901F90189519BC10925E
:1014F000A3040E94240176CF8091E30087FD02C0FF
:1015000081E0B5CF83E0B3CF1F920F920FB60F9259
:1015100011242F933F934F935F936F937F938F93F8
:101520009F93AF93BF93CF93EF93FF93C091E90045
:10153000CF708091EC001092E9008091F000877FDD
:101540008093F00078941BD01092E9008091F00015
:1015500088608093F000C093E900FF91EF91CF91F4
:10156000BF91AF919F918F917F916F915F914F91BB
:101570003F912F910F900FBE0F901F9018951F93C2
:10158000CF93DF93CDB7DEB7AA970FB6F894DEBF3F
:101590000FBECDBFE4EAF4E08091F100819324E036
:1015A000EC3AF207C9F70E9439018091E80083FF05
:1015B00010C08091A4049091A504953009F4D2C084
:1015C00000F5913009F488C008F461C0933009F443
:1015D00083C08091E80083FF0AC08091E800877F84
:1015E0008093E8008091EB0080628093EB00AA96E4
:1015F0000FB6F894DEBF0FBECDBFDF91CF911F9124
:101600000895983009F4E6C0993009F4F0C0963096
:1016100001F780588230E8F68091A6049091A704E3
:101620008C3D23E0920709F0C1C083E08A838AE2FF
:1016300089834FB7F894DE01139620E03EE051E233
:10164000E32FF0E050935700E49120FF03C0E295B0
:10165000EF703F5FEF708E2F90E0EA3008F4A4C087
:10166000C7968D939D932F5F243151F74FBF809183
:10167000E800877F8093E8006AE270E0CE0101967F
:10168000DADC8091E8008B778093E800A2CF803885
:1016900081F0823809F09DCF8091A8048F708093EB
:1016A000E9008091EB0085FB882780F91092E90022
:1016B00006C08091A0049091A10491118260909144
:1016C000E800977F9093E8008093F1001092F1007A
:1016D0008091E8008E772FC0282F2D7F09F079CFD9
:1016E0008823D1F0823009F074CF8091A604811153
:1016F0001DC08091A8048F7009F46BCF8093E9001E
:101700002091EB0020FF12C09330C9F48091EB00D0
:1017100080628093EB000AC08091A604813009F0BA
:1017200058CF933009F080E08093A1041092E90033
:101730008091E800877F8093E8006DDD4ACF90912B
:10174000EB0090619093EB0021E030E001C0220FAC
:101750008A95EAF72093EA001092EA008091EB0064
:101760008860D7CF811135CF1091A6041F77809163
:10177000E3008078812B8093E3008091E800877FED
:101780008093E80048DD8091E80080FFFCCF8091E5
:10179000E30080688093E300111104C082E080932D
:1017A000A30417CF83E0FBCFC0965BCFAE014F5FA2
:1017B0005F4F6091A8040E946E02BC01892B09F45E
:1017C00008CF9091E800977F9093E80089819A81F3
:1017D0008FDC57CF803809F0FCCE8091E800877FFE
:1017E0008093E80080919F048093F10071CF811174
:1017F000F0CE9091A604923008F0EBCE8091E800F4
:10180000877F8093E80090939F0405DD80919F047B
:10181000882311F084E005C08091E30087FDFACFB2
:1018200081E08093A3040E942601D3CE0895CF9334
:101830008091A304882391F0C091E900CF7080913A
:10184000EC0080FD0DC080E0C82B1092E900809173
:10185000E80083FD94DECF70C093E900CF91089536
:1018600080E8F2CF70D088F09F5790F0B92F992779
:10187000B751A0F0D1F0660F771F881F991F1AF09B
:10188000BA95C9F712C0B13081F077D0B1E00895B0
:1018900074C0672F782F8827B85F39F0B93FCCF331
:1018A000869577956795B395D9F73EF49095809591
:1018B000709561957F4F8F4F9F4F0895E89409C0B1
:1018C00097FB3EF490958095709561957F4F8F4F73
:1018D0009F4F9923A9F0F92F96E9BB279395F69589
:1018E000879577956795B795F111F8CFFAF4BB0F07
:1018F00011F460FF1BC06F5F7F4F8F4F9F4F16C06B
:10190000882311F096E911C0772321F09EE8872FF4
:10191000762F05C0662371F096E8862F70E060E0B0
:101920002AF09A95660F771F881FDAF7880F969529
:10193000879597F9089557FD9058440F551F59F012
:101940005F3F71F04795880F97FB991F61F09F3FAC
:1019500079F087950895121613061406551FF2CFD5
:101960004695F1DF08C0161617061806991FF1CF25
:1019700086957105610508940895E894BB2766274C
:101980007727CB0197F90895FA01EE0FFF1F3096E4
:101990002105310599F16115710561F48038BFE3C6
:1019A0009B0749F168949038810561F08038BFEF5A
:1019B0009B0741F0992342F5FF3FE10531052105E1
:1019C00011F1E8940894E795D901AA2329F4AB2FE3
:1019D000BE2FF85FD0F310C0FF5F70F4A695E0F75C
:1019E000F73950F019F0FF3A38F49F779F930CD0F5
:1019F0000F9007FC905808953EF049C060E070E0F9
:101A000080E89FE308954FE79F775F934F933F935D
:101A10002F93A7D02F913F914F915F9115D105C082
:101A200019F40EF02EC0A9CF32C08DDFC8F396385E
:101A3000C0F707F80F92E8942BE33AEA48EB5FE728
:101A400011D10F920F920F924DB75EB70F92C9D07E
:101A5000ECEAF0E01FD04F915F91EF91FF91E59597
:101A6000EE1FFF1F49F0FE57E0684427EE0F441FAA
:101A7000FA95E1F74195550B3BD00F9007FE2FC02B
:101A8000089597F99F6780E870E060E008959FEF00
:101A900080EC0895DF93CF931F930F93FF92EF9203
:101AA000DF927B018C01689405C0DA2EEF01D8D05B
:101AB000FE01E894A5912591359145915591AEF39C
:101AC000EF0137D1FE019701A801DA9479F7DF9091
:101AD000EF90FF900F911F91CF91DF9108959B019F
:101AE000AC0160E070E080E89FE376C1CACFDCC162
:101AF0002ADFE8F39923D9F3940F511DBBF39150DA
:101B0000504094F059F0882332F0660F771F881FF9
:101B100091505040C1F79E3F510544F7880F911DE9
:101B20009695879597F908955F3FACF0983E9CF0A5
:101B3000BB27869577956795B79508F4B16093951F
:101B4000C1F7BB0F58F711F460FFE8CF6F5F7F4F0D
:101B50008F4F9F4FE3CF12CF0EF0A6C198CF68945E
:101B600090CFF1DEC8F39923D1F3C6F3DF93CF937F
:101B70001F930F93FF92C92FDD2788232AF0219707
:101B8000660F771F881FDAF720E030E040E85FEB50
:101B90009FE3883920F0803E30F021968F77B8D0CF
:101BA000E4EDF0E003C0B4D0E1E0F1E073DF8B01DD
:101BB000BE01EC01FB2E6F5771097595771F880BDD
:101BC000990B7EDE28E132E741E35FE349D0AF2D98
:101BD0009801AE01FF900F911F91CF91DF91A9D095
:101BE0007FC1FA01DC01AA0FBB1F9B01AC01BF57EB
:101BF00028F422273327442750781FC0B75188F490
:101C0000AB2F0024469537952795011CA395D2F359
:101C1000002069F0220F331F441FB395DAF30DD073
:101C200076C061307105A0E88A07B94630F49B019F
:101C3000AC016627772788279078309621F020839B
:101C400031834283538308950BD04AC13BD128F09E
:101C500040D118F0952309F014CF19CF11248ECE5E
:101C60006ADEA0F3959FD1F3950F50E0551F629F58
:101C7000F001729FBB27F00DB11D639FAA27F00DE5
:101C8000B11DAA1F649F6627B00DA11D661F829F0C
:101C90002227B00DA11D621F739FB00DA11D621FF1
:101CA000839FA00D611D221F749F3327A00D611D0E
:101CB000231F849F600D211D822F762F6A2F1124F0
:101CC0009F5750408AF0E1F088234AF0EE0FFF1F43
:101CD000BB1F661F771F881F91505040A9F79E3F7A
:101CE000510570F0CECE4ACE5F3FECF3983EDCF368
:101CF000869577956795B795F795E7959F5FC1F7B7
:101D0000FE2B880F911D9695879597F90895505849
:101D1000BB27AA270ED0E4C0D5D030F0DAD020F00F
:101D200031F49F3F11F41EF4B2CE0EF4E095E7FBC0
:101D3000A8CEE92F00DE80F3BA1762077307840785
:101D4000950718F071F49EF518CE0EF4E0950B2E61
:101D5000BA2FA02D0B01B90190010C01CA01A001FD
:101D60001124FF27591B99F0593F50F4503E68F158
:101D70001A16F040A22F232F342F4427585FF3CF99
:101D8000469537952795A795F0405395C9F77EF46A
:101D90001F16BA0B620B730B840BBAF09150A1F0B3
:101DA000FF0FBB1F661F771F881FC2F70EC0BA0F39
:101DB000621F731F841F48F4879577956795B795C1
:101DC000F7959E3F08F0B3CF9395880F08F09927B9
:101DD000EE0F9795879508950CD082C07AD040F089
:101DE00071D030F021F45F3F19F04BCE5111C6CDC8
:101DF0004ECEA1DD98F39923C9F35523B1F3951B7A
:101E0000550BBB27AA2762177307840738F09F5F1B
:101E10005F4F220F331F441FAA1FA9F333D00E2E8A
:101E20003AF0E0E830D091505040E695001CCAF7F7
:101E300029D0FE2F27D0660F771F881FBB1F2617BC
:101E400037074807AB07B0E809F0BB0B802DBF018F
:101E5000FF2793585F4F2AF09E3F510568F011CE3F
:101E60008DCD5F3FECF3983EDCF3869577956795D3
:101E7000B795F7959F5FC9F7880F911D9695879540
:101E800097F90895E1E0660F771F881FBB1F62175F
:101E900073078407BA0720F0621B730B840BBA0B1D
:101EA000EE1F88F7E09508959F3F31F0915020F4A0
:101EB000879577956795B795880F911D9695879526
:101EC00097F9089500240A941616170618060906AD
:101ED000089500240A9412161306140605060895A0
:101EE000092E0394000C11F4882352F0BB0F40F428
:101EF000BF2B11F460FF04C06F5F7F4F8F4F9F4F68
:101F00000895A1E21A2EAA1BBB1BFD010DC0AA1F3A
:101F1000BB1FEE1FFF1FA217B307E407F50720F052
:101F2000A21BB30BE40BF50B661F771F881F991FCD
:101F30001A9469F760957095809590959B01AC0116
:101F4000BD01CF01089597FB10F8169400080F9378
:101F5000083098F00850232F342F452F562F672F25
:101F6000782F892F902DF4CF0594979587957795A5
:101F7000679557954795379527950A95AAF70F9135
:101F800008952A0D3B1D4C1D5D1D6E1D7F1D801F7C
:101F9000911F08952A193B094C095D096E097F09B3
:101FA000800B910B08952A153B054C055D056E05C8
:101FB0007F05800791070895FB01DC0102C00190B5
:0E1FC0000D9241505040D8F70895F894FFCF8D
:101FCE007364206361726420696E69742065727235
:101FDE006F720A0D3031323334353637383941426B
:101FEE004344465465737455534253000000000039
:101FFE0000000000D2029649303132333435363784
:10200E003839206C656E6774682072656164207063
:10201E000000000000000A000000000000000000A8
:10202E0000696E76616C696420636F6D6D616E64BC
:10203E000A0D76657269667920636F6D6D616E64E7
:10204E000A0D70726576656E7420616C6C6F772008
:10205E0072656D6F76616C20636F6D6D616E640A73
:10206E000D7465737420756E697420636F6D6D6188
:10207E006E640A0D73746172742073746F702063D2
:10208E006F6D6D616E640A0D6D6F64652073656EA4
:10209E00736520636F6D6D616E640A0D72656164A8
:1020AE0020636F6D6D616E640A0D777269746520C1
:1020BE00636F6D6D616E640A0D73656E6420646985
:1020CE0061676E6F7374696320636F6D6D616E64AB
:1020DE000A0D7265616420636170616369747920B1
:1020EE00636F6D6D616E640A0D72657175657374E3
:1020FE002073656E736520636F6D6D616E640A0D7E
:10210E00696E717569727920636F6D6D616E640AA7
:10211E000D000000021F00000053707572000000D9
:10212E000053707572204D756C7469626F6F740018
:06213E0000302E303000DD
:00000001FF
