:100000008DC00000A7C00000A5C00000A3C0000074
:10001000A1C000009FC000009DC000009BC0000068
:1000200099C0000097C000000C94A40A0C94720BB5
:1000300091C000008FC000008DC000008BC0000088
:1000400089C0000087C0000085C0000083C0000098
:1000500081C000007FC000007DC000007BC00000A8
:1000600079C0000077C0000075C0000073C00000B8
:1000700071C000006FC000006DC000006BC00000C8
:1000800069C0000067C0000065C0000063C00000D8
:1000900061C000005FC000005DC000005BC00000E8
:1000A00059C0000057C0000055C000002C03530089
:1000B00070007500720020004D0075006C00740027
:1000C000690062006F006F0074002000440065004A
:1000D000760069006300650000000A0353007000A9
:1000E00075007200000004030904090220000101E8
:1000F0000080320904000002080650000705830250
:10010000400005070504024000051201100100002F
:100110000008EB03452001000102DC0111241FBE91
:10012000CFEFDAE0DEBFCDBF12E0A0E0B1E0E8EC57
:10013000FAE102C005900D92AA38B107D9F724E080
:10014000AAE8B2E001C01D92A03CB207E1F775D168
:100150000C94620D55CF25B1982F91709095216028
:10016000922395B92BB1982F90729095206292238B
:100170009BB998B19F778078892B88B9089584B707
:10018000877F84BF0FB6F894A8958091600088613E
:1001900080936000109260000FBE90E080E80FB680
:1001A000F89480936100909361000FBE209A289A82
:1001B000559A5D9A3F9A47980C94870A80EACBDF5C
:1001C00010928A02089581E0C6CFCF9342E361E89E
:1001D00083E00E94C409C82F42E360E884E00E94E3
:1001E000C409882311F0C11103C081E8CF91B3CFB6
:1001F00080E2FCCF8091B9048E3F89F08F3F09F5F2
:100200008091B8048132E9F48091E800877F80937F
:10021000E8000E94F90981E080938A0208958091A4
:10022000B804813A71F48091E800877F8093E800F8
:100230001092F1008091E8008E778093E8000C9492
:10024000F9090895CF93DF9300D0CDB7DEB7809141
:10025000B704843009F069C08093E9008091E80018
:1002600082FF39C01A821982AE014F5F5F4F6FE083
:1002700070E084E994E080D7853049F1809194045E
:1002800090919504A0919604B0919704853593457B
:10029000A244B34471F48091A10481110AC08091F9
:1002A000A0048F7131F48091A2048150803108F450
:1002B00041C08091EB0080628093EB0083E08093EB
:1002C000E9008091EB0080628093EB0004C0809194
:1002D0008A02882349F280918A02882331F180E1E1
:1002E0008093EA001092EA0088E08093EA0010927E
:1002F000EA0084E08093E9008091EB0080618093C4
:10030000EB008091EB0088608093EB0083E08093AA
:10031000E9008091EB0080618093EB008091EB001D
:1003200088608093EB0010928A020F900F90DF910B
:10033000CF9108951A8219826091A20470E0AE01F3
:100340004F5F5F4F83EA94E017D7853009F45EC0B2
:100350008091E8008B778093E80080E2FCDE80915A
:10036000A00487FF03C083E08093E90038D291E0C6
:100370008927809357014091980450919904609186
:100380009A0470919B0440934F01509350016093E5
:1003900051017093520140919C0450919D046091D1
:1003A0009E0470919F0440935301509354016093B5
:1003B000550170935601882349F0452B462B472B56
:1003C00029F08091EB0080628093EB0084E08093C1
:1003D000E9008091EB0085FD1FC083E08093E90078
:1003E0008091EB0085FD1FC01A821982AE014F5F1C
:1003F0005F4F6DE070E08BE491E071D68530C1F025
:100400008091E8008E778093E8000AC080918A028C
:10041000882309F491CF5FCF80918A028823C9F2A3
:1004200080E299DE58CF80918A028823C9F2F8CF02
:1004300080918A028823D1F2F3CFCF93DF93CDB797
:10044000DEB767970FB6F894DEBF0FBECDBF05D1FC
:1004500035D4811108C081E87EDE64E170E084E279
:1004600091E012D1FFCF61E170E082E191E00CD127
:100470008BE0B82E6E018DE0C80ED11CF6018B2DDD
:1004800011928A95E9F79BE0E92EF12C860127E489
:1004900030E040E150E060E070E080E090E010D3B8
:1004A0006BE070E0C601F0D08AE0E7D08DE0E5D0E7
:1004B000F6018B2D11928A95E9F727E43CE040E1A3
:1004C00050E060E070E080E090E0FAD26BE070E035
:1004D000C601DAD08AE0D1D08DE0CFD0F6018B2DE5
:1004E00011928A95E9F720E032E040E350E060E0C5
:1004F00070E080E090E0E4D26BE070E0C601C4D030
:100500008AE0BBD08DE0B9D08CE0EEE7F2E0DE010E
:10051000119601900D928A95E1F70C50110927E48C
:1005200030E040E150E060E070E080E090E088D4AE
:1005300027E43CE040E150E060E070E080E090E0E3
:100540007FD420E032E040E350E060E070E080E003
:1005500090E076D48AE091D08DE08FD061E170E0B8
:1005600080E091E091D0F6018B2D11928A95E9F708
:10057000860127E430E040E150E060E070E080E098
:1005800090E09ED26BE070E0C6017ED08AE075D02C
:100590008DE073D0F6018B2D11928A95E9F727E44F
:1005A0003CE040E150E060E070E080E090E088D224
:1005B0006BE070E0C60168D08AE05FD08DE05DD06E
:1005C000F6011192BA94E9F720E032E040E350E0FE
:1005D00060E070E080E090E073D26BE070E0C60114
:1005E00053D08AE04AD08DE048D0C9DD81E0B3DD48
:1005F000789428DE0E94050DFCCF292F3327223066
:10060000310571F02330310581F021303105A1F43D
:1006100082E190E02AE031E0FA01318320830895FD
:1006200080E290E02AEE30E0F7CF99278130910503
:1006300071F038F0029771F080E090E020E030E057
:10064000EBCFE6EEF0E0849190E09F01E5CFEAED9C
:10065000F0E0F9CFECEAF0E0F6CF82E290E09093A0
:10066000CD008093CC0082E08093C80088E980931D
:10067000C9008EE08093CA0008959091C80095FF4C
:10068000FCCF8093CE0008950F931F93CF93DF93F9
:10069000EC018C01060F171FC017D10729F4DF9159
:1006A000CF911F910F9108958991E7DFF5CF3F9288
:1006B0004F925F926F927F928F929F92AF92BF9272
:1006C000CF92DF92EF92FF920F931F93CF93DF931E
:1006D000CDB7DEB72B970FB6F894DEBF0FBECDBFF8
:1006E0002B013C016A01A4D6811161C029E0440CB0
:1006F000551C661C771C2A95D1F7C114D10451F4FE
:100700008091E80085FD53C08091E8008E7780934A
:10071000E8004DC090E2392E8091E80085FF3EC090
:100720005301420120E130E03B872A87A501940173
:1007300060E070E0CB018A823B834C835D836E83F3
:100740007F8388879987EE24E394F12C8E010F5FD5
:100750001F4F60E070E080E090E0B2D1898180932B
:10076000F1003FEF831A930AA30AB30A4A855B8517
:10077000415051095B874A87452BC1F650E1450E30
:10078000511C611C711C80918A02811110C03A9425
:100790003110C2CF61E0C61AD108AFCF8091E80016
:1007A0008E778093E80044D6882309F4B9CF2B963E
:1007B0000FB6F894DEBF0FBECDBFDF91CF911F9172
:1007C0000F91FF90EF90DF90CF90BF90AF909F90F0
:1007D0008F907F906F905F904F903F9008950F9310
:1007E0001F93CF93DF938091A3048D31B9F0F8F478
:1007F000823109F453C068F4882381F0833009F40E
:10080000A2C080915A01807F856080935A0180E266
:100810005AC08A3109F4FCC08B3199F710929C04BC
:1008200010929D0410929E0410929F0481C0883201
:1008300009F4B8C068F58E3189F3853211F710924A
:10084000F1008CEE8093F1008FED8093F1008FEF3B
:100850008093F1001092F1001092F10082E08093F9
:10086000F1001092F10080918A02811130C08091D4
:10087000E8008E778093E80080919C0490919D041D
:10088000A0919E04B0919F040897A109B10948C0A6
:100890008A3209F47FC08F3209F2B3CF2091A704C6
:1008A000C22F8091A604D82F8091A404837021F4D4
:1008B0008091A504882389F080915A01807F85600A
:1008C00080935A0184E2809364011092650180E074
:1008D000DF91CF911F910F9108958E01C532D105FF
:1008E00010F004E210E040E050E0B8018AE592E048
:1008F000F6D360E070E0CE01801B910BADD3809108
:10090000E8008E778093E80080919C0490919D048C
:10091000A0919E04B0919F04801B910BA109B10985
:1009200080939C0490939D04A0939E04B0939F0495
:1009300080915A01807F80935A0110926401109235
:10094000650181E0C5CFC091A704DC2FC33108F059
:10095000D2E10D2F10E040E050E0B80188E591E0D1
:10096000BED38C2F90E060E070E0801B910B74D3BD
:100970008091E8008E778093E80080919C049091AC
:100980009D04A0919E04B0919F048D1B9109A10923
:10099000B109C6CF80915A01807F876080935A0148
:1009A00087E291CF6091A8047091A7048091A6047A
:1009B0009091A5042091AB04C22F2091AA04D22FBC
:1009C000611520EE72072CEE8207910540F08091B0
:1009D0005A01807F856080935A0181E274CFAE0115
:1009E00066DEAE0160E070E089E0440F551F661FCF
:1009F000771F8A95D1F780919C0490919D04A091D6
:100A00009E04B0919F04841B950BA60BB70B88CF57
:100A10001092F1001092F10080E88093F1001092A2
:100A2000F1008091E8008E778093E80080919C042B
:100A300090919D04A0919E04B0919F040497A109F8
:100A4000B1096ECF8EBD0DB407FEFDCF8DB58F778A
:100A50008DBD08958FEF8EBD0DB407FEFDCF8DB512
:100A60008F778DBD8EB50895FF920F931F93CF930F
:100A7000DF93C82FD42F152F062FF72EEBDF8C2FE7
:100A80008064E0DF8F2DDEDF802FDCDF812FDADF77
:100A90008D2FD8DFCC2321F0C83081F08FEF01C03B
:100AA00085E9D0DFCAE0D6DF8F3F11F4C150D9F716
:100AB000DF91CF911F910F91FF90089587E8F1CFBB
:100AC0002F923F924F925F926F927F928F929F925E
:100AD000AF92BF92CF92DF92EF92FF920F931F934C
:100AE000CF93DF93CDB7DEB760970FB6F894DEBF34
:100AF0000FBECDBF29833A834B835C836D837E8396
:100B00008F8398871A870987FC86EB862B853C851F
:100B1000232B11F481E051C029813A8131703E8745
:100B20002D87190129813A814B815C816D817E81FC
:100B30008F8198855101C12CD12CE12CF12C00E042
:100B400010E0A5D739014A011B012C0180E092E099
:100B5000ED85FE858E1B9F0B2B853C85388B2F8763
:100B60008217930710F4988B8F87A0908C02B09017
:100B70008D02C0908E02D0908F02E0909002F09093
:100B8000910200919202109193029301A401B1018C
:100B9000C20186D709F480C0289880918B0282FF19
:100BA00025C0842D09E04ED7BA01422F532F81E191
:100BB0005BDF8823F1F0289A80E060960FB6F89406
:100BC000DEBF0FBECDBFDF91CF911F910F91FF9080
:100BD000EF90DF90CF90BF90AF909F908F907F90DD
:100BE0006F905F904F903F902F900895A301B401B4
:100BF000DECF30DF8E3FE9F704E912E02BDFF801AA
:100C000081938F01F4E004391F07C1F760928C02D1
:100C100070928D0280928E0290928F0220929002AA
:100C20003092910240929202509293026D857E859D
:100C30006C567D4F4F85588989859A853AD7298585
:100C40003A858F859889280F391F3A87298702DFCF
:100C500001DF289AFFDE8B859C85EF85F8898E1B46
:100C60009F0B9C878B879F0140E050E060E070E025
:100C700080E090E0A980BA80CB80DC80ED80FE80AF
:100C80000F811885FBD629833A834B835C836D8360
:100C90007E838F8398873ACF6D857E856C567D4F96
:100CA0004F85588989859A8504D7E985FA852F85E6
:100CB0003889E20FF31FFA87E987CDCFCF92DF9211
:100CC000EF92FF920F931F93CF93DF93229A219A73
:100CD000249A2398289A83E58CBD8DB58E7F8DBD8F
:100CE00010928B02CAE0B6DEC150E9F72898C0E046
:100CF000D2E040E050E0BA0180E0B6DE813021F081
:100D00002197B9F7289A0DC04AEA51E060E070E0F7
:100D100088E0AADE82FD2BC09DDE9CDE9BDE80FD8E
:100D200002C090E083C096DE8A3AD9F780918B02A8
:100D3000826080938B02C0E0D0E880918B02982F74
:100D4000937049F181FF23C0C12CD12CE12C90E498
:100D5000F92E40E050E0BA0187E386DEB701A60134
:100D600089E282DE80FF1CC0219739F7CBCF40E0BB
:100D700050E0BA0187E378DE40E050E0BA0189E252
:100D800073DE82FDD8CF80918B028160D2CFC12CDF
:100D9000D12C7601DECF40E050E0BA0181E0E1CF16
:100DA000C0918B02C1FF10C040E050E0BA018AE35D
:100DB0005BDE8111A7CF4EDE86FF03C0C460C09307
:100DC0008B0248DE47DE46DE40E052E060E070E045
:100DD00080E14ADE289A8111A4CF8CB58C7F8CBD2E
:100DE0008DB581608DBD8FEF80938C0280938D02D5
:100DF00080938E0280938F02809390028093910261
:100E00008093920280939302E12C82E0F82E04E911
:100E100012E020E030E040E050E060E070E080E090
:100E200090E04EDE91E0882309F47BCF892FDF919B
:100E3000CF911F910F91FF90EF90DF90CF90089589
:100E40002F923F924F925F926F927F928F929F92DA
:100E5000AF92BF92CF92DF92EF92FF920F931F93C8
:100E6000CF93DF93CDB7DEB760970FB6F894DEBFB0
:100E70000FBECDBF29833A834B835C836D837E8312
:100E80008F8398871E870D87FA86E98689859A85DC
:100E9000892B11F481E087C029813A8131703C8728
:100EA0002B87190129813A814B815C816D817E817B
:100EB0008F8198855101C12CD12CE12CF12C00E0BF
:100EC00010E0E5D539014A011B012C0180E092E0D8
:100ED000EB85FC858E1B9F0B29853A85388B2F87E8
:100EE0008217930710F4988B8F87A0908C02B09094
:100EF0008D02C0908E02D0908F02E0909002F09010
:100F0000910200919202109193029301A401B10108
:100F1000C201C6D5C9F08B859C85892BC1F5EF85AB
:100F2000F889E115F24099F560928C0270928D0279
:100F300080928E0290928F022092900230929102C3
:100F400040929202509293028D859E85E2E0843910
:100F50009E0741F04F855889BC018B859C858C5636
:100F60009D4FA7D5289880918B0282FF35C09301B1
:100F7000A401B101C20109E065D5BA01422F532F86
:100F800088E172DD882359F1289A80E00CC0E12CB9
:100F900082E0F82E04E912E09301A401B101C2013C
:100FA0008FDD8111C1CF60960FB6F894DEBF0FBE02
:100FB000CDBFDF91CF911F910F91FF90EF90DF9008
:100FC000CF90BF90AF909F908F907F906F905F90E9
:100FD0004F903F902F900895A301B401D1CF8EEF91
:100FE00031DD04E912E0F80181918F012BDD24E964
:100FF00034E020173107B9F78FEF24DD8FEF22DDC2
:1010000029DD8F3FE9F726DD289A8D859E85EF85BE
:10101000F8898E0F9F1F9E878D879F0140E050E0CB
:1010200060E070E080E090E0A980BA80CB80DC8056
:10103000ED80FE800F81188521D529833A834B836B
:101040005C836D837E838F83988729853A852E1BE9
:101050003F0B3A8729871ACFCF92DF92FF920F93E7
:101060001F93CF93DF93EC018B01E2D1F82E811116
:1010700021C00115110529F0F80180819181C81B5B
:10108000D90BC12CD12C2097A9F08091E80085FDC7
:101090001FC08091E8008E778093E800011511054C
:1010A00091F0F80180819181C80ED91ED182C08251
:1010B00085E0F82E8F2DDF91CF911F910F91FF903A
:1010C000DF90CF900895B4D18823E9F2F82EF2CFC3
:1010D0001092F1002197FFEFCF1ADF0AD4CFAF9221
:1010E000BF92DF92EF92FF920F931F93CF93DF9304
:1010F000EC018B017A019CD1D82E811124C0E1141E
:10110000F10439F0F70180819181081B190BC80F98
:10111000D91FA12CB12C01151105A9F08091E8006F
:1011200085FD21C08091E8008E778093E800E1146E
:10113000F104A1F0F70180819181A80EB91EB1825E
:10114000A08285E0D82E8D2DDF91CF911F910F9138
:10115000FF90EF90DF90BF90AF90089569D1882302
:10116000D1F2D82EF0CF89918093F100015011096E
:10117000FFEFAF1ABF0ACFCFAF92BF92DF92EF92CD
:10118000FF920F931F93CF93DF93EC018B017A01B2
:101190004FD1D82E811124C0E114F10439F0F701A8
:1011A00080819181081B190BC80FD91FA12CB12C6C
:1011B00001151105A9F08091E80085FD21C08091FD
:1011C000E8008B778093E800E114F104A1F0F701C7
:1011D00080819181A80EB91EB182A08285E0D82EAF
:1011E0008D2DDF91CF911F910F91FF90EF90DF90A8
:1011F000BF90AF9008951CD18823D1F2D82EF0CFA4
:101200008091F100899301501109FFEFAF1ABF0AD5
:10121000CFCF2091BE043091BF0426173707A8F026
:101220006115710529F42091E8002E772093E800DC
:10123000FC0120E06115710551F4211108C0809175
:10124000E80082FF33C080E00895B901F1CF8091BA
:10125000B7048823B9F18530B9F18091E80083FDA6
:101260002FC08091E80082FDEACF8091E80080FFE6
:10127000E1CF2091F3008091F20090E0922B611574
:10128000710519F08830910550F021E0089709F0B8
:1012900020E08091E8008E778093E800CBCF219109
:1012A0002093F100615071090196E9CF8091B70454
:1012B000882341F0853041F08091E80083FFBFCF63
:1012C00081E0089582E0089583E008952091BE04AE
:1012D0003091BF0426173707A8F06115710529F46E
:1012E0002091E8002E772093E800FC0120E06115B2
:1012F000710551F4211108C08091E80082FF34C0CB
:1013000080E00895B901F1CF8091B7048823C1F13D
:101310008530C1F18091E80083FD30C08091E80004
:1013200082FDEACF8091E80080FFE1CF2091F300B9
:101330008091F20090E0922B6115710519F08830D0
:10134000910550F021E0089709F020E08091E80035
:101350008E778093E800CBCF24912093F1003196D3
:10136000615071090196E8CF8091B704882341F05C
:10137000853041F08091E80083FFBECF81E0089581
:1013800082E0089583E00895982F973028F08F70B9
:101390008093E90081E008959093E900981751F057
:1013A0007091EC002091ED005091F00021FD06C0FD
:1013B0009F5FEBCF242F762F50E0F8CF3091EB00DA
:1013C0003E7F3093EB003091ED003D7F3093ED0098
:1013D0003091EB0031603093EB007093EC00209380
:1013E000ED005093F0002091EE0027FDE1CF80E06A
:1013F00008958091B80487FF13C08091E80082FFB0
:1014000006C08091E8008B778093E80004C080914B
:10141000B7048111F2CF08958091B7048823D9F3DE
:101420008091E80080FFF8CF8091E8008E77ECCFC4
:101430002091E4003091E50085E69091EC0090FD6C
:1014400020C09091E80092FD20C09091B7049923AC
:1014500091F0953091F09091EB0095FD10C0409186
:10146000E4005091E5004217530739F381509A0187
:1014700021F784E0089582E0089583E0089581E0F3
:1014800008959091E80090FFE0CF80E008950F93D9
:101490001F93CF93DF934BD052D0C8EDD0E088811B
:1014A0008F77888388818068888388818F7D88830F
:1014B00019BC1092B7041092B3041092B5041092A4
:1014C000B40400EE10E0F80180818B7F8083888176
:1014D0008160888342E060E080E056DFE1EEF0E08A
:1014E00080818E7F8083E2EEF0E080818160808366
:1014F000808188608083F80180818E7F80838881ED
:1015000080618883DF91CF911F910F910895E8ED5D
:10151000F0E080818F7E8083E7EDF0E08081816064
:10152000808384E082BF81E08093B604B0CFE8ED91
:10153000F0E080818E7F80831092E2000895109207
:10154000DA001092E10008951F920F920FB60F92E9
:1015500011242F933F934F935F936F937F938F93B8
:101560009F93AF93BF93EF93FF938091E10082FF2E
:101570000AC08091E20082FF06C08091E1008B7F6B
:101580008093E10041D28091DA0080FF19C0809100
:10159000D80080FF15C08091DA008E7F8093DA003A
:1015A0008091D90080FF90C080E189BD82E189BD32
:1015B00009B400FEFDCF81E08093B7040E94DE00F5
:1015C0008091E10080FF18C08091E20080FF14C08C
:1015D0008091E2008E7F8093E2008091E200806142
:1015E0008093E2008091D80080628093D80019BC7B
:1015F00085E08093B70408D28091E10084FF28C081
:101600008091E20084FF24C080E189BD82E189BD30
:1016100009B400FEFDCF8091D8008F7D8093D80063
:101620008091E1008F7E8093E1008091E2008F7EC7
:101630008093E2008091E20081608093E2008091DB
:10164000B304882309F446C084E08093B704DCD156
:101650008091E10083FF27C08091E20083FF23C0D7
:101660008091E100877F8093E10082E08093B7045E
:101670001092B3048091E1008E7F8093E10080910D
:10168000E2008E7F8093E2008091E200806180938F
:10169000E20042E060E080E077DE8091F000886068
:1016A0008093F000B1D1FF91EF91BF91AF919F91E5
:1016B0008F917F916F915F914F913F912F910F90FB
:1016C0000FBE0F901F90189519BC1092B7040E947E
:1016D000E30076CF8091E30087FD02C081E0B5CFC3
:1016E00083E0B3CF1F920F920FB60F9211242F9366
:1016F0003F934F935F936F937F938F939F93AF939A
:10170000BF93CF93EF93FF93C091E900CF70809187
:10171000EC001092E9008091F000877F8093F00048
:1017200078941BD01092E9008091F000886080933B
:10173000F000C093E900FF91EF91CF91BF91AF917D
:101740009F918F917F916F915F914F913F912F91D9
:101750000F900FBE0F901F9018951F93CF93DF939C
:10176000CDB7DEB7AA970FB6F894DEBF0FBECDBFD8
:10177000E8EBF4E08091F100819324E0E03CF20793
:10178000C9F70E94FA008091E80083FF10C08091A1
:10179000B8049091B904953009F4D2C000F59130A5
:1017A00009F488C008F461C0933009F483C08091C3
:1017B000E80083FF0AC08091E800877F8093E800FB
:1017C0008091EB0080628093EB00AA960FB6F894AC
:1017D000DEBF0FBECDBFDF91CF911F91089598302E
:1017E00009F4E6C0993009F4F0C0963001F780584A
:1017F0008230E8F68091BA049091BB048C3D23E0DE
:10180000920709F0C1C083E08A838AE289834FB7D7
:10181000F894DE01139620E03EE051E2E32FF0E081
:1018200050935700E49120FF03C0E295EF703F5FB3
:10183000EF708E2F90E0EA3008F4A4C0C7968D9325
:101840009D932F5F243151F74FBF8091E800877F30
:101850008093E8006AE270E0CE010196DADC8091C4
:10186000E8008B778093E800A2CF803881F082383F
:1018700009F09DCF8091BC048F708093E900809126
:10188000EB0085FB882780F91092E90006C0809163
:10189000B4049091B504911182609091E800977F13
:1018A0009093E8008093F1001092F1008091E8009D
:1018B0008E772FC0282F2D7F09F079CF8823D1F084
:1018C000823009F074CF8091BA0481111DC08091DB
:1018D000BC048F7009F46BCF8093E9002091EB007A
:1018E00020FF12C09330C9F48091EB008062809396
:1018F000EB000AC08091BA04813009F058CF9330D0
:1019000009F080E08093B5041092E9008091E8002E
:10191000877F8093E8006DDD4ACF9091EB00906166
:101920009093EB0021E030E001C0220F8A95EAF7A6
:101930002093EA001092EA008091EB008860D7CFF4
:10194000811135CF1091BA041F778091E300807820
:10195000812B8093E3008091E800877F8093E800EB
:1019600048DD8091E80080FFFCCF8091E300806833
:101970008093E300111104C082E08093B70417CF75
:1019800083E0FBCFC0965BCFAE014F5F5F4F6091AE
:10199000BC040E94FD02BC01892B09F408CF909180
:1019A000E800977F9093E80089819A818FDC57CF78
:1019B000803809F0FCCE8091E800877F8093E800B2
:1019C0008091B3048093F10071CF8111F0CE90919A
:1019D000BA04923008F0EBCE8091E800877F8093C4
:1019E000E8009093B30405DD8091B304882311F0DF
:1019F00084E005C08091E30087FDFACF81E0809309
:101A0000B7040E94E500D3CE0895CF938091B70428
:101A1000882391F0C091E900CF708091EC0080FDA7
:101A20000DC080E0C82B1092E9008091E80083FD92
:101A300094DECF70C093E900CF91089580E8F2CF93
:101A400097FB10F8169400080F93083098F0085090
:101A5000232F342F452F562F672F782F892F902D26
:101A6000F4CF059497958795779567955795479502
:101A7000379527950A95AAF70F9108952A0D3B1DD2
:101A80004C1D5D1D6E1D7F1D801F911F08952A191D
:101A90003B094C095D096E097F09800B910B089584
:101AA0002A153B054C055D056E057F0580079107EE
:101AB0000895FB01DC0102C001900D92415050409D
:081AC000D8F70895F894FFCF58
:101AC8006D6F646966696564206C6162656C3A0A69
:101AD8000D006F726967696E616C206C6162656C7C
:101AE8003A0A0D007364206361726420696E697438
:101AF800206572726F720A0D3031323334353637E1
:101B0800383941424344465465737455534253002F
:101B18000000000000000000700000000000000A43
:101B280000000000000000000000696E76616C692A
:101B38006420636F6D6D616E640A0D766572696607
:101B48007920636F6D6D616E640A0D7072657665DC
:101B58006E7420616C6C6F772072656D6F76616C46
:101B680020636F6D6D616E640A0D74657374207502
:101B78006E697420636F6D6D616E640A0D737461B4
:101B880072742073746F7020636F6D6D616E640A78
:101B98000D6D6F64652073656E736520636F6D6D81
:101BA800616E640A0D7265616420636F6D6D616EAC
:101BB800640A0D777269746520636F6D6D616E6478
:101BC8000A0D73656E6420646961676E6F7374696A
:101BD8006320636F6D6D616E640A0D7265616420C8
:101BE800636170616369747920636F6D6D616E64A0
:101BF8000A0D726571756573742073656E7365205F
:101C0800636F6D6D616E640A0D696E7175697279C5
:101C180020636F6D6D616E640A0D000000021F0085
:101C28000000537075720000000053707572204DEB
:101C3800756C7469626F6F740000302E30305350C9
:0A1C480055522D4D4F444530320037
:00000001FF
