:100000008DC00000A7C00000A5C00000A3C0000074
:10001000A1C000009FC000009DC000009BC0000068
:1000200099C0000097C000007FC6000049C70000CB
:1000300091C000008FC000008DC000008BC0000088
:1000400089C0000087C0000085C0000083C0000098
:1000500081C000007FC000007DC000007BC00000A8
:1000600079C0000077C0000075C0000073C00000B8
:1000700071C000006FC000006DC000006BC00000C8
:1000800069C0000067C0000065C0000063C00000D8
:1000900061C000005FC000005DC000005BC00000E8
:1000A00059C0000057C0000055C000002C03530089
:1000B00070007500720020004D0075006C00740027
:1000C000690062006F006F0074002000440065004A
:1000D000760069006300650000000A0353007000A9
:1000E00075007200000004030904090220000101E8
:1000F0000080320904000002080650000705830250
:10010000400005070504024000051201100100002F
:100110000008EB03452001000102DC0111241FBE91
:10012000CFEFDAE0DEBFCDBF12E0A0E0B1E0ECE15E
:10013000F2E102C005900D92AC35B107D9F722E08B
:10014000ACE5B2E001C01D92A938B207E1F770D169
:100150000C940C0955CF25B1982F91709095216082
:10016000922395B92BB1982F90729095206292238B
:100170009BB998B19F778078892B88B9089584B707
:10018000877F84BF0FB6F894A8958091600088613E
:1001900080936000109260000FBE90E080E80FB680
:1001A000F89480936100909361000FBE209A289A82
:1001B000559A5D9A3F9A47989AC580EACCDF10928B
:1001C0005C02089581E0C7CFCF9342E361E883E00A
:1001D000CBD4C82F42E360E884E0C6D4882311F072
:1001E000C11103C081E8CF91B6CF80E2FCCF8091EE
:1001F00082028E3F81F08F3FF9F48091810281323B
:10020000D9F48091E800877F8093E800E2D481E010
:1002100080935C02089580918102813A69F4809113
:10022000E800877F8093E8001092F1008091E80059
:100230008E778093E800CDC40895CF93DF9300D0EC
:10024000CDB7DEB780918002843009F069C0809319
:10025000E9008091E80082FF39C01A821982AE015C
:100260004F5F5F4F6FE070E08DE592E075D38530B2
:1002700049F180915D0290915E02A0915F02B09180
:10028000600285359345A244B34471F480916A02BB
:1002900081110AC0809169028F7131F480916B02E3
:1002A0008150803108F441C08091EB0080628093DE
:1002B000EB0083E08093E9008091EB008062809303
:1002C000EB0004C080915C02882349F280915C02BB
:1002D000882331F180E18093EA001092EA0088E0FF
:1002E0008093EA001092EA0084E08093E900809114
:1002F000EB0080618093EB008091EB00886080933D
:10030000EB0083E08093E9008091EB0080618093B3
:10031000EB008091EB0088608093EB0010925C0210
:100320000F900F90DF91CF9108951A8219826091FA
:100330006B0270E0AE014F5F5F4F8CE692E00CD332
:10034000853009F45EC08091E8008B778093E800E7
:1003500080E201DF8091690287FF03C083E0809320
:10036000E900F4D091E08927809334014091610243
:1003700050916202609163027091640240932C017B
:1003800050932D0160932E0170932F0140916502CF
:10039000509166026091670270916802409330014B
:1003A000509331016093320170933301882349F0F7
:1003B000452B462B472B29F08091EB0080628093E0
:1003C000EB0084E08093E9008091EB0085FD1FC085
:1003D00083E08093E9008091EB0085FD1FC01A82C5
:1003E0001982AE014F5F5F4F6DE070E088E291E0EF
:1003F00066D28530C1F08091E8008E778093E80066
:100400000AC080915C02882309F491CF5FCF80916C
:100410005C028823C9F280E29EDE58CF80915C02A4
:100420008823C9F2F8CF80915C028823D1F2F3CF00
:1004300037D0A5DE81E08FDE7894FFDED2D6FDCF07
:10044000292F33272230310571F02330310581F017
:1004500021303105A1F482E190E02AE031E0FA0197
:1004600031832083089580E290E02AEE30E0F7CFD8
:1004700099278130910571F038F0029771F080E092
:1004800090E020E030E0EBCFE6EEF0E0849190E009
:100490009F01E5CFEAEDF0E0F9CFECEAF0E0F6CF2E
:1004A00082E290E09093CD008093CC0082E0809334
:1004B000C80088E98093C9008EE08093CA0008953F
:1004C0009091C80095FFFCCF8093CE0008950F93C4
:1004D0001F93CF93DF93EC018C01060F171FC017FA
:1004E000D10729F4DF91CF911F910F910895899140
:1004F000E7DFF5CF1F93CF93DF93EA0189D38823FA
:1005000081F0DF91CF911F91089510E28091E80072
:1005100085FF13C080915C028111F3CF1150B1F7B8
:100520002197209791F78091E80085FDEACF80918F
:10053000E8008E778093E800E4CF8091E8008E7722
:100540008093E80065D3882329F3DBCF0F931F93B3
:10055000CF93DF9380916C028D3109F4E3C0E0F416
:10056000823109F459C070F4882309F45BC18330E7
:1005700009F4ACC080913701807F8560809337019A
:1005800080E264C08A3109F42EC18B3199F764E1AD
:1005900070E08AE991E0CAC0883209F4DEC088F5CB
:1005A0008E3109F444C1853229F767E170E088EFA4
:1005B00091E08DDF1092F1001092F1001092F100A5
:1005C0008AE08093F1001092F1001092F10084E033
:1005D0008093F1001092F10080915C0281113AC089
:1005E0008091E8008E778093E80080916502909179
:1005F0006602A0916702B09168020897A109B1094B
:1006000052C08A3209F49CC08F3209F0B3CF60E146
:1006100070E088E591E08AC061E170E086E292E0F6
:1006200056DF20917002C22F80916F02D82F8091E7
:100630006D02837021F480916E02882389F080918D
:100640003701807F85608093370184E28093410188
:100650001092420180E0DF91CF911F910F91089598
:100660008E01C532D10510F004E210E040E050E008
:10067000B80187E392E023D160E070E0CE01801BF7
:10068000910BDAD08091E8008E778093E80080911A
:10069000650290916602A0916702B0916802801B8A
:1006A000910BA109B1098093650290936602A09312
:1006B0006702B093680280913701807F8093370191
:1006C000109241011092420181E0C5CF67E170E0D4
:1006D0008FE092E0FCDEC0917002DC2FC33108F0A5
:1006E000D2E10D2F10E040E050E0B80185E391E049
:1006F000E6D08C2F90E060E070E0801B910B9CD0E6
:100700008091E8008E778093E80080916502909157
:100710006602A0916702B09168028D1B9109A10940
:10072000B109C1CF69E170E08FED91E0D0DE1092A8
:100730006502109266021092670210926802BBCFA7
:100740006FE070E080ED91E0C2DE80913701807F44
:1007500087608093370187E279CF6EE070E082ECAA
:1007600091E0B5DE8091710290917002A0916F02CC
:10077000B0916E0220917402C22F20917302D22F89
:10078000892B8A2B8B2B41F080913701807F8560EC
:100790008093370181E25ACF01E210E080E390DEDE
:1007A00001501109D9F78AE08BDE8DE089DEAE01B8
:1007B00060E070E0CB019EDEAE0160E070E089E0B9
:1007C000440F551F661F771F8A95D1F780916502E8
:1007D00090916602A0916702B0916802841B950B0C
:1007E000A60BB70B60CF64E170E08EEA91E06FDE9C
:1007F0001092F1001092F10080E88093F1001092C5
:10080000F1008091E8008E778093E8008091650286
:1008100090916602A0916702B09168020497A109C5
:10082000B10941CF63E170E087E891E07FCF6FE1EC
:1008300070E088E691E07ACFCF92DF92FF920F933B
:100840001F93CF93DF93EC018B01E2D1F82E81113E
:1008500021C00115110529F0F80180819181C81B83
:10086000D90BC12CD12C2097A9F08091E80085FDEF
:100870001FC08091E8008E778093E8000115110574
:1008800091F0F80180819181C80ED91ED182C08279
:1008900085E0F82E8F2DDF91CF911F910F91FF9062
:1008A000DF90CF900895B4D18823E9F2F82EF2CFEB
:1008B0001092F1002197FFEFCF1ADF0AD4CFAF9249
:1008C000BF92DF92EF92FF920F931F93CF93DF932C
:1008D000EC018B017A019CD1D82E811124C0E11446
:1008E000F10439F0F70180819181081B190BC80FC1
:1008F000D91FA12CB12C01151105A9F08091E80098
:1009000085FD21C08091E8008E778093E800E11496
:10091000F104A1F0F70180819181A80EB91EB18286
:10092000A08285E0D82E8D2DDF91CF911F910F9160
:10093000FF90EF90DF90BF90AF90089569D188232A
:10094000D1F2D82EF0CF89918093F1000150110996
:10095000FFEFAF1ABF0ACFCFAF92BF92DF92EF92F5
:10096000FF920F931F93CF93DF93EC018B017A01DA
:100970004FD1D82E811124C0E114F10439F0F701D0
:1009800080819181081B190BC80FD91FA12CB12C94
:1009900001151105A9F08091E80085FD21C0809125
:1009A000E8008B778093E800E114F104A1F0F701EF
:1009B00080819181A80EB91EB182A08285E0D82ED7
:1009C0008D2DDF91CF911F910F91FF90EF90DF90D0
:1009D000BF90AF9008951CD18823D1F2D82EF0CFCC
:1009E0008091F100899301501109FFEFAF1ABF0AFE
:1009F000CFCF209187023091880226173707A8F0C1
:100A00006115710529F42091E8002E772093E80004
:100A1000FC0120E06115710551F4211108C080919D
:100A2000E80082FF33C080E00895B901F1CF8091E2
:100A300080028823B9F18530B9F18091E80083FD07
:100A40002FC08091E80082FDEACF8091E80080FF0E
:100A5000E1CF2091F3008091F20090E0922B61159C
:100A6000710519F08830910550F021E0089709F0E0
:100A700020E08091E8008E778093E800CBCF219131
:100A80002093F100615071090196E9CF80918002B5
:100A9000882341F0853041F08091E80083FFBFCF8B
:100AA00081E0089582E0089583E00895209187020F
:100AB0003091880226173707A8F06115710529F4CF
:100AC0002091E8002E772093E800FC0120E06115DA
:100AD000710551F4211108C08091E80082FF34C0F3
:100AE00080E00895B901F1CF809180028823C1F19F
:100AF0008530C1F18091E80083FD30C08091E8002D
:100B000082FDEACF8091E80080FFE1CF2091F300E1
:100B10008091F20090E0922B6115710519F08830F8
:100B2000910550F021E0089709F020E08091E8005D
:100B30008E778093E800CBCF24912093F1003196FB
:100B4000615071090196E8CF80918002882341F0BD
:100B5000853041F08091E80083FFBECF81E00895A9
:100B600082E0089583E00895982F973028F08F70E1
:100B70008093E90081E008959093E900981751F07F
:100B80007091EC002091ED005091F00021FD06C025
:100B90009F5FEBCF242F762F50E0F8CF3091EB0002
:100BA0003E7F3093EB003091ED003D7F3093ED00C0
:100BB0003091EB0031603093EB007093EC002093A8
:100BC000ED005093F0002091EE0027FDE1CF80E092
:100BD00008958091810287FF13C08091E80082FF11
:100BE00006C08091E8008B778093E80004C0809174
:100BF00080028111F2CF0895809180028823D9F379
:100C00008091E80080FFF8CF8091E8008E77ECCFEC
:100C10002091E4003091E50085E69091EC0090FD94
:100C200020C09091E80092FD20C09091800299230D
:100C300091F0953091F09091EB0095FD10C04091AE
:100C4000E4005091E5004217530739F381509A01AF
:100C500021F784E0089582E0089583E0089581E01B
:100C600008959091E80090FFE0CF80E008950F9301
:100C70001F93CF93DF934BD052D0C8EDD0E0888143
:100C80008F77888388818068888388818F7D888337
:100C900019BC1092800210927C0210927E02109277
:100CA0007D0200EE10E0F80180818B7F80838881D7
:100CB0008160888342E060E080E056DFE1EEF0E0B2
:100CC00080818E7F8083E2EEF0E08081816080838E
:100CD000808188608083F80180818E7F8083888115
:100CE00080618883DF91CF911F910F910895E8ED86
:100CF000F0E080818F7E8083E7EDF0E0808181608D
:100D0000808384E082BF81E080937F02B0CFE8EDF2
:100D1000F0E080818E7F80831092E200089510922F
:100D2000DA001092E10008951F920F920FB60F9211
:100D300011242F933F934F935F936F937F938F93E0
:100D40009F93AF93BF93EF93FF938091E10082FF56
:100D50000AC08091E20082FF06C08091E1008B7F93
:100D60008093E1003DD28091DA0080FF18C080912D
:100D7000D80080FF14C08091DA008E7F8093DA0063
:100D80008091D90080FF8FC080E189BD82E189BD5B
:100D900009B400FEFDCF81E0809380020EDA8091DD
:100DA000E10080FF18C08091E20080FF14C08091B4
:100DB000E2008E7F8093E2008091E2008061809368
:100DC000E2008091D80080628093D80019BC85E051
:100DD0008093800205D28091E10084FF28C0809139
:100DE000E20084FF24C080E189BD82E189BD09B4AD
:100DF00000FEFDCF8091D8008F7D8093D800809138
:100E0000E1008F7E8093E1008091E2008F7E8093ED
:100E1000E2008091E20081608093E20080917C0298
:100E2000882309F445C084E080938002D9D1809161
:100E3000E10083FF27C08091E20083FF23C08091FF
:100E4000E100877F8093E10082E08093800210922E
:100E50007C028091E1008E7F8093E1008091E2002E
:100E60008E7F8093E2008091E20080618093E200B7
:100E700042E060E080E078DE8091F000886080935E
:100E8000F000AED1FF91EF91BF91AF919F918F9103
:100E90007F916F915F914F913F912F910F900FBE76
:100EA0000F901F90189519BC109280028BD977CFA4
:100EB0008091E30087FD02C081E0B6CF83E0B4CF2C
:100EC0001F920F920FB60F9211242F933F934F93BF
:100ED0005F936F937F938F939F93AF93BF93CF93C2
:100EE000EF93FF93C091E900CF708091EC001092D6
:100EF000E9008091F000877F8093F00078941BD008
:100F00001092E9008091F00088608093F000C09317
:100F1000E900FF91EF91CF91BF91AF919F918F9198
:100F20007F916F915F914F913F912F910F900FBEE5
:100F30000F901F9018951F93CF93DF93CDB7DEB717
:100F4000AA970FB6F894DEBF0FBECDBFE1E8F2E07E
:100F50008091F100819322E0E938F207C9F747D97F
:100F60008091E80083FF10C08091810290918202FD
:100F7000953009F4D2C000F5913009F488C008F426
:100F800061C0933009F483C08091E80083FF0AC0F8
:100F90008091E800877F8093E8008091EB00806279
:100FA0008093EB00AA960FB6F894DEBF0FBECDBFBC
:100FB000DF91CF911F910895983009F4E5C09930E1
:100FC00009F4EFC0963001F780588230E8F680913E
:100FD0008302909184028C3D23E0920709F0C1C006
:100FE00083E08A838AE289834FB7F894DE011396FF
:100FF00020E03EE051E2E32FF0E050935700E4910F
:1010000020FF03C0E295EF703F5FEF708E2F90E0FE
:10101000EA3008F4A4C0C7968D939D932F5F2431C6
:1010200051F74FBF8091E800877F8093E8006AE224
:1010300070E0CE010196DDDC8091E8008B77809333
:10104000E800A2CF803881F0823809F09DCF8091EE
:1010500085028F708093E9008091EB0085FB8827E3
:1010600080F91092E90006C080917D0290917E0285
:10107000911182609091E800977F9093E8008093AF
:10108000F1001092F1008091E8008E772FC0282F98
:101090002D7F09F079CF8823D1F0823009F074CF09
:1010A0008091830281111DC0809185028F7009F4A7
:1010B0006BCF8093E9002091EB0020FF12C09330AA
:1010C000C9F48091EB0080628093EB000AC08091AC
:1010D0008302813009F058CF933009F080E080938B
:1010E0007E021092E9008091E800877F8093E800FB
:1010F00070DD4ACF9091EB0090619093EB0021E07E
:1011000030E001C0220F8A95EAF72093EA0010929E
:10111000EA008091EB008860D7CF811135CF109124
:1011200083021F778091E3008078812B8093E30016
:101130008091E800877F8093E8004BDD8091E80094
:1011400080FFFCCF8091E30080688093E300111161
:1011500004C082E08093800217CF83E0FBCFC0966B
:101160005BCFAE014F5F5F4F6091850269D9BC01D3
:10117000892B09F409CF9091E800977F9093E800BC
:1011800089819A8193DC58CF803809F0FDCE809117
:10119000E800877F8093E80080917C028093F100D3
:1011A00072CF8111F1CE90918302923008F0ECCE93
:1011B0008091E800877F8093E80090937C0209DDAE
:1011C00080917C02882311F084E005C08091E300C7
:1011D00087FDFACF81E0809380020E94E400D4CEA4
:1011E0000895CF9380918002882391F0C091E90007
:1011F000CF708091EC0080FD0DC080E0C82B109274
:10120000E9008091E80083FD96DECF70C093E9008D
:0C121000CF91089580E8F2CFF894FFCF52
:10121C0064617461206174206F757420656E6470F4
:10122C006F696E740A3031323334353637383941A0
:10123C0042434446546573745553425300000000B6
:10124C000000000000700000000000000A00000018
:10125C0000000000000000696E76616C6964206318
:10126C006F6D6D616E640A0D7665726966792063C7
:10127C006F6D6D616E640A0D70726576656E7420AB
:10128C00616C6C6F772072656D6F76616C20636F2B
:10129C006D6D616E640A0D7465737420756E69747E
:1012AC0020636F6D6D616E640A0D737461727420CE
:1012BC0073746F7020636F6D6D616E640A0D6D6F6A
:1012CC0064652073656E736520636F6D6D616E640C
:1012DC000A0D7265616420636F6D6D616E640A0D39
:1012EC00777269746520636F6D6D616E640A0D733E
:1012FC00656E6420646961676E6F737469632063E3
:10130C006F6D6D616E640A0D72656164206361704E
:10131C00616369747920636F6D6D616E640A0D721F
:10132C006571756573742073656E736520636F6D7D
:10133C006D616E640A0D696E717569727920636FE7
:10134C006D6D616E640A0D000000021F00000053F9
:10135C007075720000000053707572204D756C74BE
:0C136C0069626F6F740000302E3030009A
:00000001FF
