:100000008BC00000A7C00000A5C00000A3C0000076
:10001000A1C000009FC000009DC000009BC0000068
:1000200099C0000097C000000C94A0080C947109BE
:1000300091C000008FC000008DC000008BC0000088
:1000400089C0000087C0000085C0000083C0000098
:1000500081C000007FC000007DC000007BC00000A8
:1000600079C0000077C0000075C0000073C00000B8
:1000700071C000006FC000006DC000006BC00000C8
:1000800069C0000067C0000065C0000063C00000D8
:1000900061C000005FC000002E034C005500460008
:1000A000410020004D0061007300730020005300E8
:1000B00074006F007200610067006500200044005A
:1000C00065006D006F0000001803440065006100CA
:1000D0006E002000430061006D0065007200610049
:1000E0000000040309040902200001010080320914
:1000F00004000002080650000705830240000507BF
:100100000504024000051201100100000008EB0385
:10011000452001000102DC0111241FBECFEFD0E217
:10012000DEBFCDBF11E0A0E0B1E0E4E3F9E100E023
:100130000BBF02C007900D92A037B107D9F721E09D
:10014000A0E7B1E001C01D92AD37B207E1F740D0A2
:100150000C94980C55CF9BB19F70892B8BB9089547
:1001600084B7877F84BF0FB6F894A895809160000C
:10017000886180936000109260000FBE90E080E87C
:100180000FB6F89480936100909361000FBE8AB11E
:10019000806F8AB98BB18F708BB98DB183608DB947
:1001A0008EB183608EB9209A289A84B1866084B912
:1001B00023982B9A8DB581608DBD20988CE58CBDE0
:1001C000A4D733D3811103C080E9C5DFFFCFDDC2DF
:1001D000C7DF80E1C0DF789480E091E00E947E0B71
:1001E0000E94080BF9CF80EAB6CF80E1B4CF80E05F
:1001F00091E00E94610B811102C080E9ACCF80E6E2
:10020000FDCF80E091E00C94230BCF93DF93EC01C2
:1002100080E2A1DFCE0175D3C82F80E69CDF8C2F52
:10022000DF91CF910895292F33272230310571F0C6
:100230002330310581F021303105A1F482E190E0D5
:1002400026E031E0FA0131832083089580E290E0D6
:1002500026EE30E0F7CF99278130910571F038F024
:10026000029771F080E090E020E030E0EBCFE2EE2A
:10027000F0E0849190E09F01E5CFE8ECF0E0F9CF69
:10028000E8E9F0E0F6CF8EB19EB193609EB99EB1E1
:100290008C6F936089238EB90895F5DF87ED8EBD4D
:1002A0000DB407FEFDCF1EBC0DB407FEFDCF0EB48E
:1002B00007FEF9CFE8CF9C013695279556E0969535
:1002C00087955A95E1F78EBD0DB407FEFDCF220F3D
:1002D000220F220F722B7EBD0DB407FEFDCF6EBD27
:1002E0000DB407FEFDCF08959C019EB193609EB9A9
:1002F000211580E4380730F48EB1836020FF03C0FD
:100300008D7F8EB908958E7FFCCF8F929F92AF9292
:10031000BF92CF92DF92EF92FF920F931F93CF93F2
:10032000DF936C0179014A015B0139E0880C991C6B
:10033000AA1CBB1C3A95D1F76AE0B694A79497948F
:1003400087946A95D1F78401EA01DC2FCC27DD0F71
:10035000CC27D270C401C8DF83E58EBD0DB407FE83
:10036000FDCF60E070E0C401A6DF97DF84E88EBDBA
:100370000DB407FEFDCFBE0180E090E09CDF51D6BA
:100380008111DFC094E0D695C7959A95E1F75701A2
:1003900025E0AA0CBB1C2A95E1F7D0E088248394C1
:1003A000E114F104D1F479DFD111DEC083E88EBD10
:1003B0000DB407FEFDCF60E070E0C8017CDF6DDFAB
:1003C0008091E80085FD05C08091E8008B778093DF
:1003D000E8008EB183608EB9B4C080E2982E80911F
:1003E000E80085FFA5C0C034A1F557DFD111B6C024
:1003F00083E88EBD0DB407FEFDCF60E070E0C8015C
:100400005ADF0F5F1F4F8EB180958370823009F4E1
:10041000D825C80169DF80E4A816B10468F43DDF7F
:10042000D1119EC083E58EBD0DB407FEFDCF60E007
:1004300070E0C80140DF31DFD11194C084E88EBD87
:100440000DB407FEFDCF60E070E080E090E033DFA8
:10045000C0E08091F1008EBD0DB407FEFDCF80910C
:10046000F1008EBD0DB407FEFDCF8091F1008EBD71
:100470000DB407FEFDCF8091F1008EBD0DB407FED7
:10048000FDCF8091F1008EBD0DB407FEFDCF8091B0
:10049000F1008EBD0DB407FEFDCF8091F1008EBD41
:1004A0000DB407FEFDCF8091F1008EBD0DB407FEA7
:1004B000FDCF8091F1008EBD0DB407FEFDCF809180
:1004C000F1008EBD0DB407FEFDCF8091F1008EBD11
:1004D0000DB407FEFDCF8091F1008EBD0DB407FE77
:1004E000FDCF8091F1008EBD0DB407FEFDCF809150
:1004F000F1008EBD0DB407FEFDCF8091F1008EBDE1
:100500000DB407FEFDCF8091F1008EBD0DB407FE46
:10051000FDCFCF5FF60180AD811113C09A94911089
:100520005ECFF1E0EF1AF10880E2A81AB10838CFE7
:100530008091E8008B778093E80073D5882309F4D5
:1005400052CFDF91CF911F910F91FF90EF90DF90ED
:10055000CF90BF90AF909F908F90089586E849CF3D
:1005600085E561CF87E86BCF86E821CF8F929F9298
:10057000AF92BF92CF92DF92EF92FF920F931F93B1
:10058000CF93DF936C0179014A015B0129E0880C6C
:10059000991CAA1CBB1C2A95D1F73AE0B694A794E3
:1005A000979487943A95D1F78401EA01DC2FCC2700
:1005B000DD0FCC27D270C40197DE82ED8EBD0DB465
:1005C00007FEFDCFBE01C40176DE1EBC0DB407FEE2
:1005D000FDCF1EBC0DB407FEFDCF1EBC0DB407FE43
:1005E000FDCF1EBC0DB407FEFDCF1BD58111C0C0D1
:1005F00084E0D695C7958A95E1F792EDB92EE1147E
:10060000F10469F48091E80085FD05C08091E8005F
:100610008E778093E8008EB183608EB9A9C0D0E256
:100620008091E80085FF9BC0C034E9F40F5F1F4F45
:10063000C8015ADEBEBC0DB407FEFDCF60E070E01D
:10064000C80139DE1EBC0DB407FEFDCF1EBC0DB4C3
:1006500007FEFDCF1EBC0DB407FEFDCF1EBC0DB4C2
:1006600007FEFDCFC0E01EBC0DB407FEFDCF8EB56A
:100670008093F1001EBC0DB407FEFDCF8EB58093B4
:10068000F1001EBC0DB407FEFDCF8EB58093F100C6
:100690001EBC0DB407FEFDCF8EB58093F1001EBCCD
:1006A0000DB407FEFDCF8EB58093F1001EBC0DB4D6
:1006B00007FEFDCF8EB58093F1001EBC0DB407FE82
:1006C000FDCF8EB58093F1001EBC0DB407FEFDCFAB
:1006D0008EB58093F1001EBC0DB407FEFDCF8EB524
:1006E0008093F1001EBC0DB407FEFDCF8EB5809344
:1006F000F1001EBC0DB407FEFDCF8EB58093F10056
:100700001EBC0DB407FEFDCF8EB58093F1001EBC5C
:100710000DB407FEFDCF8EB58093F1001EBC0DB465
:1007200007FEFDCF8EB58093F1001EBC0DB407FE11
:10073000FDCF8EB58093F1001EBC0DB407FEFDCF3A
:100740008EB58093F100CF5FF60180AD811110C0AE
:10075000D15009F065CFF1E0EF1AF10850CF809148
:10076000E8008E778093E8005CD4882309F45CCF9E
:10077000DF91CF911F910F91FF90EF90DF90CF907D
:10078000BF90AF909F908F9008958EB183608E7FC1
:100790008EB987ED8EBD0DB407FEFDCF1EBC0DB426
:1007A00007FEFDCF0EB401FC14C08EB183608D7FB7
:1007B0008EB987ED8EBD0DB407FEFDCF1EBC0DB406
:1007C00007FEFDCF0EB401FC1AC08EB183608EB956
:1007D000089559DD8DE38EBD0DB407FEFDCF8AE28D
:1007E0008EBD0DB407FEFDCF8FE78EBD0DB407FEA5
:1007F000FDCF8AE98EBD0DB407FEFDCFD6CF43DD18
:100800008DE38EBD0DB407FEFDCF8AE28EBD0DB423
:1008100007FEFDCF8FE78EBD0DB407FEFDCF8AE941
:100820008EBD0DB407FEFDCFD0CF8EB183608E7F1D
:100830008EB98FE98EBD0DB407FEFDCF1EBC0DB481
:1008400007FEFDCF9EB58EB183608EB99F31A1F4B6
:100850008EB183608D7F8EB98FE98EBD0DB407FE9A
:10086000FDCF1EBC0DB407FEFDCF9EB58EB18360DB
:100870008EB981E09F3109F080E008950F931F93B6
:10088000CF93DF93EC01862F48A15F8D6E8D7D8D18
:100890000BA11AA1411590E859076105710588F06F
:1008A00080913B01807F856080933B0181E2809352
:1008B00045011092460180E0DF91CF911F910F9189
:1008C000089598018823D1F0CE0150DEC801A0E040
:1008D000B0E029E0880F991FAA1FBB1F2A95D1F706
:1008E0004C895D896E897F89481B590B6A0B7B0B8C
:1008F0004C8B5D8B6E8B7F8B81E0DECFCE0105DD77
:10090000E5CFCF92DF92EF92FF920F931F93CF9399
:10091000DF93CDB7DEB728970FB6F894DEBF0FBED2
:10092000CDBF8C01FC01838D8D3109F4BBC0E0F497
:10093000823109F454C068F4882381F0833009F4CB
:100940008BC080913B01807F856080933B0180E27A
:1009500056C08A3109F4D8C08B3199F7F801148A4E
:10096000158A168A178AC3C0883209F4CBC080F56D
:100970008E31A1F3853229F78FEF9FE7A0E0B0E039
:100980008D839E83AF83B88780E092E0A0E0B0E0E3
:1009900089839A83AB83BC8340E050E064E070E0DD
:1009A000CE01059657D140E050E064E070E0CE0102
:1009B000019650D18091E8008E778093E800F8018D
:1009C00084899589A689B7890897A109B1093FC08B
:1009D0008A3209F487C08F3209F4C0CFB2CFF80150
:1009E000E78CF68C848D837019F4858D882369F0EB
:1009F00080913B01807F856080933B0184E28093FE
:100A000045011092460180E05EC06701F5E2EF16F5
:100A1000F10418F094E2C92ED12C40E050E0B60168
:100A20008BE491E0CAD060E070E0C7018C199D09A9
:100A300081D08091E8008E778093E800F801848966
:100A40009589A689B7898C199D09A109B109848B5B
:100A5000958BA68BB78B4BC0F801F78CEF2CF2E18E
:100A6000FF1510F482E1E82ECE2CD12C40E050E0AE
:100A7000B60189E391E0A1D08F2D90E060E070E0B5
:100A80008C199D0957D08091E8008E778093E800FB
:100A9000F80184899589A689B7898E199109A109D8
:100AA000B109D5CFF801848D82FFA2CFBEDE8111BE
:100AB00055CF90913B01907F946090933B011092B1
:100AC00045011092460128960FB6F894DEBF0FBE7E
:100AD000CDBFDF91CF911F910F91FF90EF90DF90ED
:100AE000CF90089560E0C801C9DE882361F380914A
:100AF0003B01807F80933B0110924501109246019B
:100B000081E0E1CF61E0EFCF1092F1001092F100AF
:100B10001092F1001092F1008091E8008E7780939E
:100B2000E800F80184899589A689B7890497A10905
:100B3000B1098DCFCF92DF92FF920F931F93CF9386
:100B4000DF93EC018B016DD2F82E811121C00115CC
:100B5000110529F0F80180819181C81BD90BC12CA6
:100B6000D12C2097A9F08091E80085FD1FC08091CD
:100B7000E8008E778093E8000115110591F0F801E7
:100B800080819181C80ED91ED182C08285E0F82E65
:100B90008F2DDF91CF911F910F91FF90DF90CF901C
:100BA00008953FD28823E9F2F82EF2CF1092F10097
:100BB0002197FFEFCF1ADF0AD4CFAF92BF92DF9217
:100BC000EF92FF920F931F93CF93DF93EC018B0172
:100BD0007A0127D2D82E811124C0E114F10439F012
:100BE000F70180819181081B190BC80FD91FA12C17
:100BF000B12C01151105A9F08091E80085FD21C0F7
:100C00008091E8008E778093E800E114F104A1F070
:100C1000F70180819181A80EB91EB182A08285E082
:100C2000D82E8D2DDF91CF911F910F91FF90EF90D6
:100C3000DF90BF90AF900895F4D18823D1F2D82EE1
:100C4000F0CF89918093F10001501109FFEFAF1AA5
:100C5000BF0ACFCFAF92BF92DF92EF92FF920F9376
:100C60001F93CF93DF93EC018B017A01DAD1D82E59
:100C7000811128C0C8010197C80FD91FE114F104E0
:100C800039F0F70180819181081B190BC81BD90B22
:100C9000A12CB12C01151105A9F08091E80085FD6A
:100CA00021C08091E8008E778093E800E114F10480
:100CB000A1F0F70180819181A80EB91EB182A082B6
:100CC00085E0D82E8D2DDF91CF911F910F91FF9050
:100CD000EF90DF90BF90AF900895A3D18823D1F219
:100CE000D82EF0CF88818093F1002197015011090F
:100CF000FFEFAF1ABF0ACECFAF92BF92DF92EF9253
:100D0000FF920F931F93CF93DF93EC018B017A0136
:100D100088D1D82E811124C0E114F10439F0F701F3
:100D200080819181081B190BC80FD91FA12CB12CF0
:100D300001151105A9F08091E80085FD21C0809181
:100D4000E8008B778093E800E114F104A1F0F7014B
:100D500080819181A80EB91EB182A08285E0D82E33
:100D60008D2DDF91CF911F910F91FF90EF90DF902C
:100D7000BF90AF90089555D18823D1F2D82EF0CFEF
:100D80008091F100899301501109FFEFAF1ABF0A5A
:100D9000CFCF20917B0130917C0126173707A8F037
:100DA0006115710529F42091E8002E772093E80061
:100DB000FC0120E06115710551F4211108C08091FA
:100DC000E80082FF31C080E00895B901F1CF809141
:100DD00074018823A9F18530A9F18091E80083FD91
:100DE0002DC08091E80082FDEACF8091E80080FF6D
:100DF000E1CF8091F2009091F3006115710519F037
:100E00008830910550F021E0089709F020E08091AA
:100E1000E8008E778093E800CDCF21912093F100F8
:100E2000615071090196E9CF80917401882341F0E6
:100E3000853041F08091E80083FFC1CF81E00895C3
:100E400082E0089583E0089520917B0130917C0138
:100E500026173707A8F06115710529F42091E800DD
:100E60002E772093E800FC0120E06115710551F414
:100E7000211108C08091E80082FF32C080E008950F
:100E8000B901F1CF809174018823B1F18530B1F1BE
:100E90008091E80083FD2EC08091E80082FDEACFBA
:100EA0008091E80080FFE1CF8091F2009091F30003
:100EB0006115710519F08830910550F021E008970F
:100EC00009F020E08091E8008E778093E800CDCF94
:100ED00024912093F1003196615071090196E8CF79
:100EE00080917401882341F0853041F08091E800C1
:100EF00083FFC0CF81E0089582E0089583E00895E4
:100F0000982F973028F08F708093E90081E0089542
:100F10009093E900981751F07091EC002091ED004A
:100F20005091F00021FD06C09F5FEBCF242F762F5C
:100F300050E0F8CF3091EB003E7F3093EB003091E2
:100F4000ED003D7F3093ED003091EB003160309348
:100F5000EB007093EC002093ED005093F000209193
:100F6000EE0027FDE1CF80E008950F931F93CF930C
:100F7000DF93062FEC0110E0101302C081E00FC0D8
:100F80009881911103C01F5F2596F6CF2C81A9810E
:100F9000BA816B81892F8F70873030F080E0DF91CC
:100FA000CF911F910F9108952230B0F442E0E8E014
:100FB000F0E020E0EA17FB0788F02295207F422B23
:100FC00020E4629FB0011124991F9927991F692B72
:100FD00097DF8111D8CFE2CF46E0E9CF2F5FEE0F48
:100FE000FF1FE8CF8091750187FF13C08091E80053
:100FF00082FF06C08091E8008B778093E80004C0F0
:10100000809174018111F2CF089580917401882339
:10101000D9F38091E80080FFF8CF8091E8008E77C7
:10102000ECCF2091E4003091E50085E69091EC0052
:1010300090FD20C09091E80092FD20C09091740135
:10104000992391F0953091F09091EB0095FD10C0AF
:101050004091E4005091E5004217530739F3815065
:101060009A0121F784E0089582E0089583E00895CD
:1010700081E008959091E80090FFE0CF80E008952E
:101080000F931F93CF93DF934ED055D0C8EDD0E090
:1010900088818F77888388818068888388818F7D25
:1010A0008883E7EDF0E080818068808319BC10922E
:1010B000740110927001109272011092710100EE91
:1010C00010E0F80180818B7F808388818160888334
:1010D00042E060E080E014DFE1EEF0E080818E7FAE
:1010E0008083E2EEF0E0808181608083808188608F
:1010F0008083F80180818E7F8083888180618883EE
:10110000DF91CF911F910F910895E8EDF0E080817C
:101110008F7E8083E7EDF0E080818160808381E0D5
:1011200080937301ADCFE8EDF0E080818C7F808308
:101130001092E20008951092DA001092E1000895F2
:101140001F920F920FB60F9211240BB60F922F938E
:101150003F934F935F936F937F938F939F93AF933F
:10116000BF93EF93FF938091E10082FF0AC08091CB
:10117000E20082FF06C08091E1008B7F8093E10056
:1011800046D28091DA0080FF18C08091D80080FF9D
:1011900014C08091DA008E7F8093DA008091D900AC
:1011A00080FF91C08CE089BD8EE089BD09B400FE4E
:1011B000FDCF81E08093740116D88091E10080FF1B
:1011C00018C08091E20080FF14C08091E2008E7F01
:1011D0008093E2008091E20080618093E200809140
:1011E000D80080628093D80019BC85E08093740198
:1011F0000ED28091E10084FF28C08091E20084FF3C
:1012000024C08CE089BD8EE089BD09B400FEFDCF0D
:101210008091D8008F7D8093D8008091E1008F7EEF
:101220008093E1008091E2008F7E8093E2008091C4
:10123000E20081608093E20080917001882309F4CC
:1012400048C084E080937401E2D18091E10083FF83
:1012500027C08091E20083FF23C08091E100877F57
:101260008093E10082E0809374011092700180917C
:10127000E1008E7F8093E1008091E2008E7F809379
:10128000E2008091E20080618093E20042E060E051
:1012900080E036DE8091F00088608093F000B7D166
:1012A000FF91EF91BF91AF919F918F917F916F913E
:1012B0005F914F913F912F910F900BBE0F900FBEFA
:1012C0000F901F90189519BC109274010E94F500A0
:1012D00074CF8091E30087FD02C081E0B3CF83E04B
:1012E000B1CF1F920F920FB60F9211240BB60F922F
:1012F0002F933F934F935F936F937F938F939F931E
:10130000AF93BF93CF93EF93FF93C091E900CF705A
:101310008091EC001092E9008091F000877F80932B
:10132000F00078941DD01092E9008091F000886060
:101330008093F000C093E900FF91EF91CF91BF91AE
:10134000AF919F918F917F916F915F914F913F915D
:101350002F910F900BBE0F900FBE0F901F901895FE
:101360001F93CF93DF93CDB7DEB7AA970FB6F8944C
:10137000DEBF0FBECDBFE5E7F1E08091F1008193C4
:1013800021E0ED37F207C9F70E9401018091E800E2
:1013900083FF10C08091750190917601953009F41A
:1013A000D2C000F5913009F488C008F461C09330D0
:1013B00009F483C08091E80083FF0AC08091E800AF
:1013C000877F8093E8008091EB0080628093EB0040
:1013D000AA960FB6F894DEBF0FBECDBFDF91CF91B6
:1013E0001F910895983009F4E6C0993009F4F0C0CF
:1013F000963001F780588230E8F68091770190911D
:1014000078018C3D23E0920709F0C1C083E08A8314
:101410008AE289834FB7F894DE01139620E03EE01C
:1014200051E2E32FF0E050935700E49120FF03C016
:10143000E295EF703F5FEF708E2F90E0EA3008F496
:10144000A4C0C7968D939D932F5F243151F74FBF52
:101450008091E800877F8093E8006AE270E0CE0127
:10146000019697DC8091E8008B778093E800A2CF0B
:10147000803881F0823809F09DCF809179018F709A
:101480008093E9008091EB0085FB882780F910921A
:10149000E90006C080917101909172019111826002
:1014A0009091E800977F9093E8008093F10010926C
:1014B000F1008091E8008E772FC0282F2D7F09F052
:1014C00079CF8823D1F0823009F074CF80917701F1
:1014D00081111DC0809179018F7009F46BCF8093C9
:1014E000E9002091EB0020FF12C09330C9F48091F5
:1014F000EB0080628093EB000AC08091770181301D
:1015000009F058CF933009F080E080937201109277
:10151000E9008091E800877F8093E80063DD4ACF8F
:101520009091EB0090619093EB0021E030E001C0DE
:10153000220F8A95EAF72093EA001092EA00809140
:10154000EB008860D7CF811135CF109177011F77DD
:101550008091E3008078812B8093E3008091E80004
:10156000877F8093E8003EDD8091E80080FFFCCF1C
:101570008091E30080688093E300111104C082E051
:101580008093740117CF83E0FBCFC0965BCFAE0191
:101590004F5F5F4F609179010E941301BC01892B5D
:1015A00009F408CF9091E800977F9093E800898133
:1015B0009A814ADC57CF803809F0FCCE8091E80050
:1015C000877F8093E800809170018093F10071CF54
:1015D0008111F0CE90917701923008F0EBCE80919E
:1015E000E800877F8093E80090937001FBDC809196
:1015F0007001882311F084E005C08091E30087FD2D
:10160000FACF81E0809374010E94F700D3CE089551
:10161000CF9380917401882391F0C091E900CF703D
:101620008091EC0080FD0DC080E0C82B1092E90095
:101630008091E80083FD94DECF70C093E900CF91E4
:10164000089580E8F2CFCF93DF93EC018091E8001A
:1016500083FF1BC0888190E02091790130917A014D
:101660002817390791F4809176018E3F89F08F3FDA
:1016700061F480917501813241F48091E800877FA7
:101680008093E800AFDC81E088AFDF91CF910895CF
:1016900080917501813AC9F78091E800877F809336
:1016A000E8008091E80080FFFCCF8B85815080931B
:1016B000F1008091E8008E778093E800DF91CF9170
:1016C00091CCCF93DF93EC01FC013C968DE2DF01DE
:1016D0001D928A95E9F782E08C83898761E0CE01CB
:1016E000019643DC882331F061E0CE010696DF915C
:1016F000CF913BCC80E0DF91CF910895EF92FF92A4
:101700000F931F93CF93DF9300D0CDB7DEB78C013B
:1017100080917401843009F07FC0F80186818F7058
:101720008093E9008091E80082FF3DC086818F7040
:101730008093E9001A8219827801FCE0EF0EF11C17
:10174000AE014F5F5F4F6FE070E0C701D5DAF8017F
:10175000853031F184859585A685B7858535934596
:10176000A244B34469F4F801918D8385981740F43D
:10177000808D8F7129F4828D8150803108F455C09D
:101780008091EB0080628093EB00F80181818F7083
:101790008093E9008091EB0080628093EB0003C0AE
:1017A00080AD882369F2F80180AD8823A9F12681F4
:1017B0002F7081E090E0AC0102C0440F551F2A95C4
:1017C000E2F74093EA001092EA0021812F7001C0F5
:1017D000880F2A95EAF78093EA001092EA00868142
:1017E0008F708093E9008091EB0080618093EB0023
:1017F0008091EB0088608093EB0081818F708093F3
:10180000E9008091EB0080618093EB008091EB0018
:1018100088608093EB0010AE0F900F90DF91CF9116
:101820001F910F91FF90EF9008951A82198278010D
:10183000FBE1EF0EF11CF801628D70E0AE014F5F2D
:101840005F4FC70159DA853009F45EC08091E80026
:101850008B778093E800F801808D87FF04C0818139
:101860008F708093E900C8010E94050191E09827DC
:10187000F80197AB45E553E562E473E543A754A748
:1018800065A776A7408951896289738947A750ABBC
:1018900061AB72AB448955896689778943AB54AB98
:1018A00065AB76AB811109C0452B462B472B29F040
:1018B0008091EB0080628093EB00F80186818F704D
:1018C0008093E9008091EB00F80185FD23C08181C0
:1018D0008F708093E9008091EB0085FD1FC01A8214
:1018E00019827801FBE2EF0EF11CAE014F5F5F4FF2
:1018F0006DE070E0C70161D98530A9F08091E80002
:101900008E778093E8004FCFF80180AD882309F4EB
:1019100092CF49CF80AD8823A9F245CFF80180ADA1
:101920008823C9F240CFF80180AD8823F1F23BCF84
:04193000F894FFCF59
:101934000083400000010440000001010000000099
:101944000000000000000000000000000000000093
:101954000000000000000000000000000000000083
:101964000000000000000000007000000000000003
:101974000A00000000000000000000008000021FB8
:101984000000004C5546410000000044617461664B
:101994006C617368204469736B0000302E30300032
:00000001FF
