:1000000095C00000AFC00000ADC00000ABC0000054
:10001000A9C00000A7C00000A5C00000A3C0000048
:10002000A1C000009FC000000C942C090C94FA0998
:1000300099C0000097C0000095C0000093C0000068
:1000400091C000008FC000008DC000008BC0000078
:1000500089C0000087C0000085C0000083C0000088
:1000600081C000007FC000007DC000007BC0000098
:1000700079C0000077C0000075C0000073C00000A8
:1000800071C000006FC000006DC000006BC00000B8
:1000900069C0000067C0000065C0000063C00000C8
:1000A00061C000005FC000005DC000002E034C0076
:1000B00055004600410020004D00610073007300B0
:1000C0002000530074006F0072006100670065003B
:1000D0002000440065006D006F000000180344001C
:1000E000650061006E002000430061006D00650046
:1000F00072006100000004030904090220000101EC
:10010000008032090400000208065000070583023F
:10011000400005070504024000051201100100001F
:100120000008EB03452001000102DC0111241FBE81
:10013000CFEFDAE0DEBFCDBF11E0A0E0B1E0E4E553
:10014000F7E102C005900D92A434B107D9F721E080
:10015000A4E4B1E001C01D92A137B207E1F77CD160
:100160000C94A80B4DCF9BB19F70892B8BB9089530
:1001700084B7877F84BF0FB6F894A89580916000FC
:10018000886180936000109260000FBE90E080E86C
:100190000FB6F89480936100909361000FBE8AB10E
:1001A000806F8AB98BB18F708BB98DB183608DB937
:1001B0008EB183608EB9209A289A84B1866084B902
:1001C00023982B9A8DB581608DBD20988CE58CBDD0
:1001D0000E940F0944D4811103C080E9C4DFFFCF1E
:1001E000EEC380EAC0DF10924401089580E1BBCFE6
:1001F000CF9342E361E883E04FD7C82F42E360E842
:1002000084E04AD7882311F0C11103C080E9CF915F
:10021000AACF80E6FCCF80916A018E3F81F08F3FAC
:10022000F9F4809169018132D9F48091E800877FE7
:100230008093E80066D781E080934401089580911F
:100240006901813A69F48091E800877F8093E80032
:100250001092F1008091E8008E778093E80051C7FA
:100260000895CF93DF9300D0CDB7DEB780916801BA
:10027000843009F069C08093E9008091E80082FF32
:1002800039C01A821982AE014F5F5F4F6FE070E094
:1002900085E491E0F9D5853049F18091450190914F
:1002A0004601A0914701B091480185359345A2448C
:1002B000B34471F48091520181110AC080915101BF
:1002C0008F7131F4809153018150803108F441C025
:1002D0008091EB0080628093EB0083E08093E900E3
:1002E0008091EB0080628093EB0004C08091440118
:1002F000882349F280914401882331F180E1809381
:10030000EA001092EA0088E08093EA001092EA0086
:1003100084E08093E9008091EB0080618093EB00A2
:100320008091EB0088608093EB0083E08093E9008C
:100330008091EB0080618093EB008091EB008860FE
:100340008093EB00109244010F900F90DF91CF91BA
:1003500008951A8219826091530170E0AE014F5FD7
:100360005F4F84E591E090D5853009F45EC08091BF
:10037000E8008B778093E80080E2F5DE8091510100
:1003800087FF03C083E08093E900DED391E08927F3
:1003900080930C014091490150914A0160914B01B9
:1003A00070914C0140930401509305016093060144
:1003B0007093070140914D0150914E0160914F01A2
:1003C00070915001409308015093090160930A0114
:1003D00070930B01882349F0452B462B472B29F0BE
:1003E0008091EB0080628093EB0084E08093E900D1
:1003F0008091EB0085FD1FC083E08093E900809130
:10040000EB0085FD1FC01A821982AE014F5F5F4F5E
:100410006DE070E080E091E0EAD48530C1F0809139
:10042000E8008E778093E8000AC080914401882319
:1004300009F491CF5FCF809144018823C9F280E60F
:1004400092DE58CF809144018823C9F2F8CF809181
:1004500044018823D1F2F3CF8BDE80E184DE7894EF
:1004600000DF0E948D0BFCCF292F3327223031056E
:1004700071F02330310581F021303105A1F482E1A2
:1004800090E02AE131E0FA0131832083089580E28F
:1004900090E02AEF30E0F7CF99278130910571F095
:1004A00038F0029771F080E090E020E030E0EBCF90
:1004B000E6EFF0E0849190E09F01E5CFECEDF0E015
:1004C000F9CFECEAF0E0F6CF8EB19EB193609EB921
:1004D0009EB18C6F936089238EB90895F5DF87ED07
:1004E0008EBD0DB407FEFDCF1EBC0DB407FEFDCFC3
:1004F0000EB407FEF9CFE8CF9C013695279556E05C
:10050000969587955A95E1F78EBD0DB407FEFDCF00
:10051000220F220F220F722B7EBD0DB407FEFDCFDE
:100520006EBD0DB407FEFDCF08959C019EB1936092
:100530009EB9211580E4380730F48EB1836020FF26
:1005400003C08D7F8EB908958E7FFCCF8F929F92CE
:10055000AF92BF92EF92FF920F931F93CF93DF93CF
:100560008A014B015C0139E0880C991CAA1CBB1C58
:100570003A95D1F74AE0B694A794979487944A9510
:10058000D1F7E401762F6627770F7B01EE2482E016
:10059000F822C401CADF83E58EBD0DB407FEFDCF8E
:1005A00060E070E0C401A8DF99DF84E88EBD0DB47F
:1005B00007FEFDCFB70180E090E09EDFC1D581113D
:1005C000DFC094E0F694E7949A95E1F7FE2C580189
:1005D00025E0AA0CBB1C2A95E1F7E12C8824839422
:1005E00001151105D1F47ADFE110DBC083E88EBD7F
:1005F0000DB407FEFDCF60E070E0CE017DDF6EDF61
:100600008091E80085FD05C08091E8008B7780939C
:10061000E8008EB183608EB9B3C080E2982E8091DD
:10062000E80085FFA4C080E4F81233C057DFE11072
:10063000B2C083E88EBD0DB407FEFDCF60E070E070
:10064000CE015ADF21968EB180958370823009F4F5
:10065000E824CE016ADF80E4A816B10468F43EDF26
:10066000E1109BC083E58EBD0DB407FEFDCF60E0B9
:1006700070E0CE0141DF32DFE11091C084E88EBD31
:100680000DB407FEFDCF60E070E080E090E034DF65
:10069000F12C8091F1008EBD0DB407FEFDCF80914D
:1006A000F1008EBD0DB407FEFDCF8091F1008EBD2F
:1006B0000DB407FEFDCF8091F1008EBD0DB407FE95
:1006C000FDCF8091F1008EBD0DB407FEFDCF80916E
:1006D000F1008EBD0DB407FEFDCF8091F1008EBDFF
:1006E0000DB407FEFDCF8091F1008EBD0DB407FE65
:1006F000FDCF8091F1008EBD0DB407FEFDCF80913E
:10070000F1008EBD0DB407FEFDCF8091F1008EBDCE
:100710000DB407FEFDCF8091F1008EBD0DB407FE34
:10072000FDCF8091F1008EBD0DB407FEFDCF80910D
:10073000F1008EBD0DB407FEFDCF8091F1008EBD9E
:100740000DB407FEFDCF8091F1008EBD0DB407FE04
:10075000FDCFF39480914401811112C09A949110BD
:100760005ECF0150110980E2A81AB10839CF8091FB
:10077000E8008B778093E800E3D4882309F453CF13
:10078000DF91CF911F910F91FF90EF90BF90AF90AD
:100790009F908F90089586E84DCF85E564CF87E8D8
:1007A0006ECF86E824CF8F929F92AF92BF92EF9246
:1007B000FF920F931F93CF93DF938A014B015C014C
:1007C00039E0880C991CAA1CBB1C3A95D1F74AE069
:1007D000B694A794979487944A95D1F7E401762F1D
:1007E0006627770F7B01EE2482E0F822C4019DDEAC
:1007F00082ED8EBD0DB407FEFDCFB701C4017CDED6
:100800001EBC0DB407FEFDCF1EBC0DB407FEFDCF10
:100810001EBC0DB407FEFDCF1EBC0DB407FEFDCF00
:100820008FD48111C1C094E0F694E7949A95E1F7D2
:10083000FE2C22EDB22E0115110569F48091E8001D
:1008400085FD05C08091E8008E778093E8008EB129
:1008500083608EB9A9C080E2E82E8091E80085FF10
:100860009AC080E4F8121CC02196CE015EDEBEBCA8
:100870000DB407FEFDCF60E070E0CE013DDE1EBC92
:100880000DB407FEFDCF1EBC0DB407FEFDCF1EBC90
:100890000DB407FEFDCF1EBC0DB407FEFDCFF12C3D
:1008A0001EBC0DB407FEFDCF8EB58093F1001EBCBB
:1008B0000DB407FEFDCF8EB58093F1001EBC0DB4C4
:1008C00007FEFDCF8EB58093F1001EBC0DB407FE70
:1008D000FDCF8EB58093F1001EBC0DB407FEFDCF99
:1008E0008EB58093F1001EBC0DB407FEFDCF8EB512
:1008F0008093F1001EBC0DB407FEFDCF8EB5809332
:10090000F1001EBC0DB407FEFDCF8EB58093F10043
:100910001EBC0DB407FEFDCF8EB58093F1001EBC4A
:100920000DB407FEFDCF8EB58093F1001EBC0DB453
:1009300007FEFDCF8EB58093F1001EBC0DB407FEFF
:10094000FDCF8EB58093F1001EBC0DB407FEFDCF28
:100950008EB58093F1001EBC0DB407FEFDCF8EB5A1
:100960008093F1001EBC0DB407FEFDCF8EB58093C1
:10097000F1001EBC0DB407FEFDCF8EB58093F100D3
:10098000F3948091440181110FC0EA94E11065CF86
:100990000150110950CF8091E8008E778093E800D4
:1009A000CFD3882309F45DCFDF91CF911F910F91B1
:1009B000FF90EF90BF90AF909F908F9008958EB171
:1009C00083608E7F8EB987ED8EBD0DB407FEFDCF9F
:1009D0001EBC0DB407FEFDCF0EB401FC14C08EB1D9
:1009E00083608D7F8EB987ED8EBD0DB407FEFDCF80
:1009F0001EBC0DB407FEFDCF0EB401FC1AC08EB1B3
:100A000083608EB9089560DD8DE38EBD0DB407FE61
:100A1000FDCF8AE28EBD0DB407FEFDCF8FE78EBD00
:100A20000DB407FEFDCF8AE98EBD0DB407FEFDCFE4
:100A3000D6CF4ADD8DE38EBD0DB407FEFDCF8AE231
:100A40008EBD0DB407FEFDCF8FE78EBD0DB407FE42
:100A5000FDCF8AE98EBD0DB407FEFDCFD0CF8EB19C
:100A600083608E7F8EB98FE98EBD0DB407FEFDCFFA
:100A70001EBC0DB407FEFDCF9EB58EB183608EB94E
:100A80009F31A1F48EB183608D7F8EB98FE98EBDC9
:100A90000DB407FEFDCF1EBC0DB407FEFDCF9EB505
:100AA0008EB183608EB981E09F3109F080E00895B6
:100AB000CF93DF93282F6091590170915801809155
:100AC00057019091560130915C01C32F30915B0129
:100AD000D32F611530E873078105910578F0809177
:100AE0000F01807F856080930F0181E2809319015F
:100AF00010921A0180E0DF91CF910895AE01222378
:100B000009F151DEAE0160E070E089E0440F551F4D
:100B1000661F771F8A95D1F780914D0190914E0104
:100B2000A0914F01B0915001841B950BA60BB70B00
:100B300080934D0190934E01A0934F01B0935001CB
:100B400081E0D9CF03DDDECF0F931F93CF93DF93E7
:100B5000809154018D3109F4C6C0F8F4823109F452
:100B600044C068F4882381F0833009F484C0809104
:100B70000F01807F856080930F0180E24BC08A3136
:100B800009F4D9C08B3199F710924D0110924E01A2
:100B900010924F0110925001C1C0883209F4C9C0AF
:100BA000F0F48E3189F3853211F71092F100109232
:100BB000F1008FE78093F1008FEF8093F1001092A6
:100BC000F1001092F10082E08093F1001092F100A8
:100BD00080914401882309F475C080E095C08A3271
:100BE00009F497C08F3281F2C2CF80915801C82F8B
:100BF00080915701D82F80915501837021F4809105
:100C00005601882361F080910F01807F8560809379
:100C10000F0184E28093190110921A01DECF8E0138
:100C2000C532D10510F004E210E040E050E0B80118
:100C30008FE191E0DCD060E070E0CE01801B910B91
:100C400093D08091E8008E778093E80080914D01E9
:100C500090914E01A0914F01B0915001801B910BDA
:100C6000A109B10980934D0190934E01A0934F01CA
:100C7000B093500153C0C0915801DC2FC33108F02C
:100C8000D2E10D2F10E040E050E0B8018DE091E09E
:100C9000AED08C2F90E060E070E0801B910B64D0B0
:100CA0008091E8008E778093E80080914D019091CB
:100CB0004E01A0914F01B09150018D1B9109A109E6
:100CC000B109D0CF8091E8008E778093E8008091C1
:100CD0004D0190914E01A0914F01B09150010897A4
:100CE000A109B109BFCF8091550182FF8CCFB7DE3A
:100CF00081114ACF90910F01907F946090930F01E2
:100D00001092190110921A01DF91CF911F910F914A
:100D1000089580E0CDDE882309F45FCF80910F0134
:100D2000807F80930F011092190110921A0181E0C7
:100D3000EBCF81E0EFCF1092F1001092F100109212
:100D4000F1001092F1008091E8008E778093E80026
:100D500080914D0190914E01A0914F01B0915001B1
:100D60000497A109B1097ECFCF92DF92FF920F9332
:100D70001F93CF93DF93EC018B01E2D1F82E811109
:100D800021C00115110529F0F80180819181C81B4E
:100D9000D90BC12CD12C2097A9F08091E80085FDBA
:100DA0001FC08091E8008E778093E800011511053F
:100DB00091F0F80180819181C80ED91ED182C08244
:100DC00085E0F82E8F2DDF91CF911F910F91FF902D
:100DD000DF90CF900895B4D18823E9F2F82EF2CFB6
:100DE0001092F1002197FFEFCF1ADF0AD4CFAF9214
:100DF000BF92DF92EF92FF920F931F93CF93DF93F7
:100E0000EC018B017A019CD1D82E811124C0E11410
:100E1000F10439F0F70180819181081B190BC80F8B
:100E2000D91FA12CB12C01151105A9F08091E80062
:100E300085FD21C08091E8008E778093E800E11461
:100E4000F104A1F0F70180819181A80EB91EB18251
:100E5000A08285E0D82E8D2DDF91CF911F910F912B
:100E6000FF90EF90DF90BF90AF90089569D18823F5
:100E7000D1F2D82EF0CF89918093F1000150110961
:100E8000FFEFAF1ABF0ACFCFAF92BF92DF92EF92C0
:100E9000FF920F931F93CF93DF93EC018B017A01A5
:100EA0004FD1D82E811124C0E114F10439F0F7019B
:100EB00080819181081B190BC80FD91FA12CB12C5F
:100EC00001151105A9F08091E80085FD21C08091F0
:100ED000E8008B778093E800E114F104A1F0F701BA
:100EE00080819181A80EB91EB182A08285E0D82EA2
:100EF0008D2DDF91CF911F910F91FF90EF90DF909B
:100F0000BF90AF9008951CD18823D1F2D82EF0CF96
:100F10008091F100899301501109FFEFAF1ABF0AC8
:100F2000CFCF20916F013091700126173707A8F0BD
:100F30006115710529F42091E8002E772093E800CF
:100F4000FC0120E06115710551F4211108C0809168
:100F5000E80082FF33C080E00895B901F1CF8091AD
:100F600068018823B9F18530B9F18091E80083FDEB
:100F70002FC08091E80082FDEACF8091E80080FFD9
:100F8000E1CF2091F3008091F20090E0922B611567
:100F9000710519F08830910550F021E0089709F0AB
:100FA00020E08091E8008E778093E800CBCF2191FC
:100FB0002093F100615071090196E9CF8091680199
:100FC000882341F0853041F08091E80083FFBFCF56
:100FD00081E0089582E0089583E0089520916F01F3
:100FE0003091700126173707A8F06115710529F4B3
:100FF0002091E8002E772093E800FC0120E06115A5
:10100000710551F4211108C08091E80082FF34C0BD
:1010100080E00895B901F1CF809168018823C1F182
:101020008530C1F18091E80083FD30C08091E800F7
:1010300082FDEACF8091E80080FFE1CF2091F300AC
:101040008091F20090E0922B6115710519F08830C3
:10105000910550F021E0089709F020E08091E80028
:101060008E778093E800CBCF24912093F1003196C6
:10107000615071090196E8CF80916801882341F0A1
:10108000853041F08091E80083FFBECF81E0089574
:1010900082E0089583E00895982F973028F08F70AC
:1010A0008093E90081E008959093E900981751F04A
:1010B0007091EC002091ED005091F00021FD06C0F0
:1010C0009F5FEBCF242F762F50E0F8CF3091EB00CD
:1010D0003E7F3093EB003091ED003D7F3093ED008B
:1010E0003091EB0031603093EB007093EC00209373
:1010F000ED005093F0002091EE0027FDE1CF80E05D
:1011000008958091690187FF13C08091E80082FFF4
:1011100006C08091E8008B778093E80004C080913E
:1011200068018111F2CF0895809168018823D9F375
:101130008091E80080FFF8CF8091E8008E77ECCFB7
:101140002091E4003091E50085E69091EC0090FD5F
:1011500020C09091E80092FD20C0909168019923F1
:1011600091F0953091F09091EB0095FD10C0409179
:10117000E4005091E5004217530739F381509A017A
:1011800021F784E0089582E0089583E0089581E0E6
:1011900008959091E80090FFE0CF80E008950F93CC
:1011A0001F93CF93DF934BD052D0C8EDD0E088810E
:1011B0008F77888388818068888388818F7D888302
:1011C00019BC10926801109264011092660110928D
:1011D000650100EE10E0F80180818B7F80838881BB
:1011E0008160888342E060E080E056DFE1EEF0E07D
:1011F00080818E7F8083E2EEF0E080818160808359
:10120000808188608083F80180818E7F80838881DF
:1012100080618883DF91CF911F910F910895E8ED50
:10122000F0E080818F7E8083E7EDF0E08081816057
:10123000808384E082BF81E080936701B0CFE8EDD6
:10124000F0E080818E7F80831092E20008951092FA
:10125000DA001092E10008951F920F920FB60F92DC
:1012600011242F933F934F935F936F937F938F93AB
:101270009F93AF93BF93EF93FF938091E10082FF21
:101280000AC08091E20082FF06C08091E1008B7F5E
:101290008093E10041D28091DA0080FF19C08091F3
:1012A000D80080FF15C08091DA008E7F8093DA002D
:1012B0008091D90080FF90C080E189BD82E189BD25
:1012C00009B400FEFDCF81E0809368010E94F10027
:1012D0008091E10080FF18C08091E20080FF14C07F
:1012E0008091E2008E7F8093E2008091E200806135
:1012F0008093E2008091D80080628093D80019BC6E
:1013000085E08093680108D28091E10084FF28C0C5
:101310008091E20084FF24C080E189BD82E189BD23
:1013200009B400FEFDCF8091D8008F7D8093D80056
:101330008091E1008F7E8093E1008091E2008F7EBA
:101340008093E2008091E20081608093E2008091CE
:101350006401882309F446C084E080936801DCD1ED
:101360008091E10083FF27C08091E20083FF23C0CA
:101370008091E100877F8093E10082E080936801A3
:10138000109264018091E1008E7F8093E100809152
:10139000E2008E7F8093E2008091E2008061809382
:1013A000E20042E060E080E077DE8091F00088605B
:1013B0008093F000B1D1FF91EF91BF91AF919F91D8
:1013C0008F917F916F915F914F913F912F910F90EE
:1013D0000FBE0F901F90189519BC109268010E94C3
:1013E000F60076CF8091E30087FD02C081E0B5CFA3
:1013F00083E0B3CF1F920F920FB60F9211242F9359
:101400003F934F935F936F937F938F939F93AF938C
:10141000BF93CF93EF93FF93C091E900CF7080917A
:10142000EC001092E9008091F000877F8093F0003B
:1014300078941BD01092E9008091F000886080932E
:10144000F000C093E900FF91EF91CF91BF91AF9170
:101450009F918F917F916F915F914F913F912F91CC
:101460000F900FBE0F901F9018951F93CF93DF938F
:10147000CDB7DEB7AA970FB6F894DEBF0FBECDBFCB
:10148000E9E6F1E08091F100819321E0E137F20794
:10149000C9F70E940B018091E80083FF10C0809182
:1014A000690190916A01953009F4D2C000F591303C
:1014B00009F488C008F461C0933009F483C08091B6
:1014C000E80083FF0AC08091E800877F8093E800EE
:1014D0008091EB0080628093EB00AA960FB6F8949F
:1014E000DEBF0FBECDBFDF91CF911F910895983021
:1014F00009F4E6C0993009F4F0C0963001F780583D
:101500008230E8F680916B0190916C018C3D23E074
:10151000920709F0C1C083E08A838AE289834FB7CA
:10152000F894DE01139620E03EE051E2E32FF0E074
:1015300050935700E49120FF03C0E295EF703F5FA6
:10154000EF708E2F90E0EA3008F4A4C0C7968D9318
:101550009D932F5F243151F74FBF8091E800877F23
:101560008093E8006AE270E0CE010196DADC8091B7
:10157000E8008B778093E800A2CF803881F0823832
:1015800009F09DCF80916D018F708093E90080916B
:10159000EB0085FB882780F91092E90006C0809156
:1015A000650190916601911182609091E800977FAA
:1015B0009093E8008093F1001092F1008091E80090
:1015C0008E772FC0282F2D7F09F079CF8823D1F077
:1015D000823009F074CF80916B0181111DC0809120
:1015E0006D018F7009F46BCF8093E9002091EB00BF
:1015F00020FF12C09330C9F48091EB008062809389
:10160000EB000AC080916B01813009F058CF933014
:1016100009F080E0809366011092E9008091E80073
:10162000877F8093E8006DDD4ACF9091EB00906159
:101630009093EB0021E030E001C0220F8A95EAF799
:101640002093EA001092EA008091EB008860D7CFE7
:10165000811135CF10916B011F778091E300807865
:10166000812B8093E3008091E800877F8093E800DE
:1016700048DD8091E80080FFFCCF8091E300806826
:101680008093E300111104C082E08093680117CFBA
:1016900083E0FBCFC0965BCFAE014F5F5F4F6091A1
:1016A0006D010E943402BC01892B09F408CF90918E
:1016B000E800977F9093E80089819A818FDC57CF6B
:1016C000803809F0FCCE8091E800877F8093E800A5
:1016D000809164018093F10071CF8111F0CE9091DF
:1016E0006B01923008F0EBCE8091E800877F809309
:1016F000E8009093640105DD80916401882311F076
:1017000084E005C08091E30087FDFACF81E08093FB
:1017100068010E94F800D3CE0895CF9380916801AC
:10172000882391F0C091E900CF708091EC0080FD9A
:101730000DC080E0C82B1092E9008091E80083FD85
:1017400094DECF70C093E900CF91089580E8F2CF86
:04175000F894FFCF3B
:1017540055534253000000000000000000700000D8
:10176400000000000A00000000000000000000006B
:101774008000021F0000004C554641000000004458
:10178400617461666C617368204469736B00003036
:041794002E303000C3
:00000001FF
